{"src/contracts/Breevs.sol":{"BreevsRussianRoulette":{"abi":[{"inputs":[{"internalType":"address","name":"_randomContractAddress","type":"address"}],"stateMutability":"nonpayable","type":"constructor"},{"anonymous":false,"inputs":[{"indexed":true,"internalType":"uint256","name":"gameId","type":"uint256"},{"indexed":false,"internalType":"address","name":"winner","type":"address"}],"name":"GameCompleted","type":"event"},{"anonymous":false,"inputs":[{"indexed":true,"internalType":"uint256","name":"gameId","type":"uint256"}],"name":"GameCreated","type":"event"},{"anonymous":false,"inputs":[{"indexed":true,"internalType":"uint256","name":"gameId","type":"uint256"}],"name":"GameStarted","type":"event"},{"anonymous":false,"inputs":[{"indexed":true,"internalType":"uint256","name":"gameId","type":"uint256"},{"indexed":false,"internalType":"address","name":"player","type":"address"},{"indexed":false,"internalType":"uint256","name":"round","type":"uint256"}],"name":"PlayerEliminated","type":"event"},{"anonymous":false,"inputs":[{"indexed":true,"internalType":"uint256","name":"gameId","type":"uint256"},{"indexed":false,"internalType":"address","name":"player","type":"address"}],"name":"PlayerJoined","type":"event"},{"anonymous":false,"inputs":[{"indexed":true,"internalType":"uint256","name":"gameId","type":"uint256"},{"indexed":false,"internalType":"address","name":"winner","type":"address"},{"indexed":false,"internalType":"uint256","name":"amount","type":"uint256"}],"name":"PrizeClaimed","type":"event"},{"anonymous":false,"inputs":[{"indexed":true,"internalType":"uint256","name":"gameId","type":"uint256"},{"indexed":false,"internalType":"uint256","name":"commitBlock","type":"uint256"},{"indexed":false,"internalType":"uint256","name":"round","type":"uint256"}],"name":"SpinRequested","type":"event"},{"inputs":[],"name":"MAX_PLAYERS","outputs":[{"internalType":"uint256","name":"","type":"uint256"}],"stateMutability":"view","type":"function"},{"inputs":[],"name":"MAX_ROUND_DURATION","outputs":[{"internalType":"uint256","name":"","type":"uint256"}],"stateMutability":"view","type":"function"},{"inputs":[],"name":"MAX_STAKE","outputs":[{"internalType":"uint256","name":"","type":"uint256"}],"stateMutability":"view","type":"function"},{"inputs":[],"name":"MIN_HOST_BALANCE","outputs":[{"internalType":"uint256","name":"","type":"uint256"}],"stateMutability":"view","type":"function"},{"inputs":[],"name":"MIN_ROUND_DURATION","outputs":[{"internalType":"uint256","name":"","type":"uint256"}],"stateMutability":"view","type":"function"},{"inputs":[],"name":"MIN_STAKE","outputs":[{"internalType":"uint256","name":"","type":"uint256"}],"stateMutability":"view","type":"function"},{"inputs":[],"name":"REVEAL_DELAY","outputs":[{"internalType":"uint256","name":"","type":"uint256"}],"stateMutability":"view","type":"function"},{"inputs":[{"internalType":"uint256","name":"gameId","type":"uint256"}],"name":"advanceRound","outputs":[],"stateMutability":"nonpayable","type":"function"},{"inputs":[],"name":"celoRandomAddress","outputs":[{"internalType":"address","name":"","type":"address"}],"stateMutability":"view","type":"function"},{"inputs":[{"internalType":"uint256","name":"gameId","type":"uint256"}],"name":"claimPrize","outputs":[],"stateMutability":"nonpayable","type":"function"},{"inputs":[{"internalType":"uint256","name":"stake","type":"uint256"},{"internalType":"uint256","name":"roundDuration","type":"uint256"}],"name":"createGame","outputs":[{"internalType":"uint256","name":"","type":"uint256"}],"stateMutability":"payable","type":"function"},{"inputs":[],"name":"gameCounter","outputs":[{"internalType":"uint256","name":"","type":"uint256"}],"stateMutability":"view","type":"function"},{"inputs":[{"internalType":"uint256","name":"","type":"uint256"}],"name":"games","outputs":[{"internalType":"address","name":"creator","type":"address"},{"internalType":"uint256","name":"stake","type":"uint256"},{"internalType":"uint256","name":"prizePool","type":"uint256"},{"internalType":"enum BreevsRussianRoulette.Status","name":"status","type":"uint8"},{"internalType":"uint256","name":"roundDuration","type":"uint256"},{"internalType":"uint256","name":"roundEnd","type":"uint256"},{"internalType":"uint256","name":"currentRound","type":"uint256"},{"internalType":"address","name":"winner","type":"address"},{"internalType":"uint256","name":"totalRounds","type":"uint256"}],"stateMutability":"view","type":"function"},{"inputs":[{"internalType":"uint256","name":"gameId","type":"uint256"}],"name":"getActivePlayers","outputs":[{"internalType":"address[]","name":"","type":"address[]"}],"stateMutability":"view","type":"function"},{"inputs":[{"internalType":"uint256","name":"gameId","type":"uint256"}],"name":"getPendingSpin","outputs":[{"components":[{"internalType":"bool","name":"pending","type":"bool"},{"internalType":"uint256","name":"commitBlock","type":"uint256"},{"internalType":"uint256","name":"round","type":"uint256"}],"internalType":"struct BreevsRussianRoulette.SpinRequest","name":"","type":"tuple"}],"stateMutability":"view","type":"function"},{"inputs":[{"internalType":"uint256","name":"gameId","type":"uint256"}],"name":"joinGame","outputs":[],"stateMutability":"payable","type":"function"},{"inputs":[{"internalType":"uint256","name":"","type":"uint256"}],"name":"pendingSpins","outputs":[{"internalType":"bool","name":"pending","type":"bool"},{"internalType":"uint256","name":"commitBlock","type":"uint256"},{"internalType":"uint256","name":"round","type":"uint256"}],"stateMutability":"view","type":"function"},{"inputs":[{"internalType":"uint256","name":"","type":"uint256"},{"internalType":"address","name":"","type":"address"}],"name":"playerDeposits","outputs":[{"internalType":"uint256","name":"","type":"uint256"}],"stateMutability":"view","type":"function"},{"inputs":[{"internalType":"uint256","name":"","type":"uint256"},{"internalType":"address","name":"","type":"address"}],"name":"playerGameData","outputs":[{"internalType":"bool","name":"eliminated","type":"bool"},{"internalType":"uint256","name":"eliminationRound","type":"uint256"}],"stateMutability":"view","type":"function"},{"inputs":[{"internalType":"uint256","name":"","type":"uint256"}],"name":"prizeClaimed","outputs":[{"internalType":"bool","name":"","type":"bool"}],"stateMutability":"view","type":"function"},{"inputs":[],"name":"randomContract","outputs":[{"internalType":"contract IRandom","name":"","type":"address"}],"stateMutability":"view","type":"function"},{"inputs":[{"internalType":"uint256","name":"gameId","type":"uint256"}],"name":"requestSpin","outputs":[],"stateMutability":"nonpayable","type":"function"},{"inputs":[{"internalType":"uint256","name":"gameId","type":"uint256"}],"name":"resolveSpin","outputs":[],"stateMutability":"nonpayable","type":"function"},{"inputs":[{"internalType":"uint256","name":"gameId","type":"uint256"}],"name":"startGame","outputs":[],"stateMutability":"nonpayable","type":"function"},{"inputs":[{"internalType":"address","name":"","type":"address"}],"name":"userStats","outputs":[{"internalType":"uint256","name":"gamesPlayed","type":"uint256"},{"internalType":"uint256","name":"gamesWon","type":"uint256"},{"internalType":"uint256","name":"totalWinnings","type":"uint256"},{"internalType":"uint256","name":"totalStaked","type":"uint256"}],"stateMutability":"view","type":"function"},{"stateMutability":"payable","type":"receive"}],"evm":{"bytecode":{"linkReferences":{},"object":"60a06040523480156200001157600080fd5b506040516200207138038062002071833981016040819052620000349162000170565b6001600160a01b0381166200015b576040516552616e646f6d60d01b602082015260009061ce109063dd92723390602601604051602081830303815290604052805190602001206040518263ffffffff1660e01b81526004016200009a91815260200190565b602060405180830381865afa158015620000b8573d6000803e3d6000fd5b505050506040513d601f19601f82011682018060405250810190620000de919062000170565b90506001600160a01b038116620001495760405162461bcd60e51b815260206004820152602560248201527f52616e646f6d20636f6e7472616374206e6f7420666f756e6420696e20726567604482015264697374727960d81b606482015260840160405180910390fd5b6001600160a01b031660805262000169565b6001600160a01b0381166080525b50620001a2565b6000602082840312156200018357600080fd5b81516001600160a01b03811681146200019b57600080fd5b9392505050565b608051611ea5620001cc600039600081816104810152818161057501526112e80152611ea56000f3fe60806040526004361061016a5760003560e01c8063952e88d1116100d1578063cb1c2b5c1161008a578063dfab983c11610064578063dfab983c146105b7578063e5ed1d59146105f7578063eca0d6ae14610617578063efaa55a01461063757600080fd5b8063cb1c2b5c14610547578063ccf69e9b14610563578063d70981541461059757600080fd5b8063952e88d114610472578063a7bc4e30146104b9578063ab5669ad146104ce578063b8da0c5b146104e3578063c781bd7a14610527578063c98517c51461054757600080fd5b8063342ed95611610123578063342ed956146103025780634411b3eb1461032f5780634cbe64231461034457806360104cef146103a15780636c617d98146103b45780638a65d8741461041057600080fd5b80630aaa4548146101c1578063117a5b90146101ea5780631556bda11461027657806328a0b80f146102ae5780632d34a8dd146102d05780632e0be39a146102ec57600080fd5b366101bc5760405162461bcd60e51b815260206004820152601a60248201527f557365206a6f696e47616d65206f722063726561746547616d6500000000000060448201526064015b60405180910390fd5b600080fd5b3480156101cd57600080fd5b506101d76103e881565b6040519081526020015b60405180910390f35b3480156101f657600080fd5b50610261610205366004611c0a565b6001602052600090815260409020805460028201546003830154600484015460058501546006860154600787015460088801546009909801546001600160a01b03978816989697959660ff909516959394929391929091169089565b6040516101e199989796959493929190611c39565b34801561028257600080fd5b506101d7610291366004611cca565b600360209081526000928352604080842090915290825290205481565b3480156102ba57600080fd5b506102ce6102c9366004611c0a565b61064a565b005b3480156102dc57600080fd5b506101d7674563918244f4000081565b3480156102f857600080fd5b506101d760005481565b34801561030e57600080fd5b5061032261031d366004611c0a565b6108de565b6040516101e19190611cf6565b34801561033b57600080fd5b506101d7600681565b34801561035057600080fd5b5061038461035f366004611c0a565b60066020526000908152604090208054600182015460029092015460ff909116919083565b6040805193151584526020840192909252908201526060016101e1565b6101d76103af366004611d43565b6108ef565b3480156103c057600080fd5b506103f96103cf366004611cca565b60026020908152600092835260408084209091529082529020805460019091015460ff9091169082565b6040805192151583526020830191909152016101e1565b34801561041c57600080fd5b5061045261042b366004611d65565b60056020526000908152604090208054600182015460028301546003909301549192909184565b6040805194855260208501939093529183015260608201526080016101e1565b34801561047e57600080fd5b507f00000000000000000000000000000000000000000000000000000000000000005b6040516001600160a01b0390911681526020016101e1565b3480156104c557600080fd5b506101d7600181565b3480156104da57600080fd5b506101d7600a81565b3480156104ef57600080fd5b506105036104fe366004611c0a565b610b68565b604080518251151581526020808401519082015291810151908201526060016101e1565b34801561053357600080fd5b506102ce610542366004611c0a565b610bcc565b34801561055357600080fd5b506101d7670de0b6b3a764000081565b34801561056f57600080fd5b506104a17f000000000000000000000000000000000000000000000000000000000000000081565b3480156105a357600080fd5b506102ce6105b2366004611c0a565b610d88565b3480156105c357600080fd5b506105e76105d2366004611c0a565b60046020526000908152604090205460ff1681565b60405190151581526020016101e1565b34801561060357600080fd5b506102ce610612366004611c0a565b610fde565b34801561062357600080fd5b506102ce610632366004611c0a565b61113d565b6102ce610645366004611c0a565b611538565b600081815260016020526040902080546001600160a01b031633146106a65760405162461bcd60e51b815260206004820152601260248201527127b7363c903437b9ba1031b0b71039b834b760711b60448201526064016101b3565b6001600482015460ff1660028111156106c1576106c1611c23565b146107055760405162461bcd60e51b815260206004820152601460248201527347616d65206e6f7420696e2070726f677265737360601b60448201526064016101b3565b806006015443111561074d5760405162461bcd60e51b8152602060048201526011602482015270149bdd5b99081a185cc8195e1c1a5c9959607a1b60448201526064016101b3565b6000828152600660205260409020805460ff16801561077a575060018101546107779060c8611d9d565b43115b156107a1576000838152600660205260408120805460ff1916815560018101829055600201555b60008381526006602052604090205460ff16156107f75760405162461bcd60e51b81526020600482015260146024820152735370696e20616c72656164792070656e64696e6760601b60448201526064016101b3565b6000610802846117ce565b9050600181511161084c5760405162461bcd60e51b815260206004820152601460248201527313db9b1e481bdb99481c1b185e595c881b19599d60621b60448201526064016101b3565b60408051606081018252600180825243602080840182815260078901805486880190815260008c8152600685528890209651875460ff191690151517875591519486019490945551600290940193909355905483519182529181019190915285917f23cd5f4a12318f3c49df28957a6e8faa44e9c004e2fcd561199623298445dfd0910160405180910390a250505050565b60606108e9826117ce565b92915050565b6000670de0b6b3a764000083146109485760405162461bcd60e51b815260206004820152601c60248201527f5374616b65206d7573742062652065786163746c7920312043454c4f0000000060448201526064016101b3565b600a821015801561095b57506103e88211155b61099a5760405162461bcd60e51b815260206004820152601060248201526f24b73b30b634b210323ab930ba34b7b760811b60448201526064016101b3565b670de0b6b3a764000034146109fb5760405162461bcd60e51b815260206004820152602160248201527f4d7573742073656e642065786163746c7920312043454c4f206173207374616b6044820152606560f81b60648201526084016101b3565b674563918244f4000033311015610a545760405162461bcd60e51b815260206004820152601e60248201527f486f7374206d75737420686f6c64206174206c6561737420352043454c4f000060448201526064016101b3565b600080549080610a6383611db0565b90915550506000805481526001602081815260408084208054336001600160a01b031991821681178355670de0b6b3a76400006002808501829055600380860183905560048601805460ff19908116909155600587018d9055868a018054808c018255908c52898c200180549096168517909555865180880188528a81528089018b81528b548c52928952878b20858c528952878b2090518154901515961695909517855590519390970192909255865487529484528286208587529093529320819055610b319190611978565b6000805460405190917fbd19c47e9925eb6f7be8bb1c13a841e0240aaeaf17f217e90022e9c8eb66877f91a2505060005492915050565b610b8e604051806060016040528060001515815260200160008152602001600081525090565b506000908152600660209081526040918290208251606081018452815460ff1615158152600182015492810192909252600201549181019190915290565b600081815260016020819052604090912090600482015460ff166002811115610bf757610bf7611c23565b14610c365760405162461bcd60e51b815260206004820152600f60248201526e4e6f7420696e2070726f677265737360881b60448201526064016101b3565b80600601544311610c7f5760405162461bcd60e51b8152602060048201526013602482015272149bdd5b99081b9bdd08195b991959081e595d606a1b60448201526064016101b3565b6000828152600660205260409020805460ff168015610cac57506001810154610ca99060c8611d9d565b43115b15610cd3576000838152600660205260408120805460ff1916815560018101829055600201555b60008381526006602052604090205460ff1615610d325760405162461bcd60e51b815260206004820152601a60248201527f5265736f6c76652070656e64696e67207370696e20666972737400000000000060448201526064016101b3565b6000610d3d846117ce565b90506001815111610d5657610d51846119c2565b610d82565b600783018054906000610d6883611db0565b90915550506005830154610d7c9043611d9d565b60068401555b50505050565b60008181526001602052604090206002600482015460ff166002811115610db157610db1611c23565b14610df35760405162461bcd60e51b815260206004820152601260248201527111d85b59481b9bdd0818dbdb5c1b195d195960721b60448201526064016101b3565b60088101546001600160a01b0316610e3d5760405162461bcd60e51b815260206004820152600d60248201526c139bc81dda5b9b995c881cd95d609a1b60448201526064016101b3565b60088101546001600160a01b03163314610e8a5760405162461bcd60e51b815260206004820152600e60248201526d2737ba103a3432903bb4b73732b960911b60448201526064016101b3565b60008281526004602052604090205460ff1615610ee15760405162461bcd60e51b8152602060048201526015602482015274141c9a5e9948185b1c9958591e4818db185a5b5959605a1b60448201526064016101b3565b6000828152600460205260409020805460ff191660011790556003810154610f0a903390611abf565b600381015460405160009133918381818185875af1925050503d8060008114610f4f576040519150601f19603f3d011682016040523d82523d6000602084013e610f54565b606091505b5050905080610f975760405162461bcd60e51b815260206004820152600f60248201526e151c985b9cd9995c8819985a5b1959608a1b60448201526064016101b3565b600382015460408051338152602081019290925284917f4aa95f981a8337cb337de335b965507da0879c3b49f799d20058e913f5ad2c2691015b60405180910390a2505050565b600081815260016020526040812090600482015460ff16600281111561100657611006611c23565b146110445760405162461bcd60e51b815260206004820152600e60248201526d47616d65206e6f7420726561647960901b60448201526064016101b3565b80546001600160a01b031633146110965760405162461bcd60e51b815260206004820152601660248201527513db9b1e4818dc99585d1bdc8818d85b881cdd185c9d60521b60448201526064016101b3565b60018101546006146110e35760405162461bcd60e51b81526020600482015260166024820152754e6565642065786163746c79203620706c617965727360501b60448201526064016101b3565b60048101805460ff19166001908117909155600782015560058101546111099043611d9d565b600682015560405182907f50ad08f58a27f2851d7e3a1b3a6a46b290f2ce677e99642d30ff639721e7779090600090a25050565b60008181526001602090815260408083206006909252909120805460ff166111995760405162461bcd60e51b815260206004820152600f60248201526e2737903832b73234b7339039b834b760891b60448201526064016101b3565b6001600483015460ff1660028111156111b4576111b4611c23565b146111f85760405162461bcd60e51b815260206004820152601460248201527347616d65206e6f7420696e2070726f677265737360601b60448201526064016101b3565b600181600101546112099190611d9d565b4310156112585760405162461bcd60e51b815260206004820152601b60248201527f4d757374207761697420666f722052414e44414f2072657665616c000000000060448201526064016101b3565b60018101546112689060c8611d9d565b4311156112c95760405162461bcd60e51b815260206004820152602960248201527f5370696e20726571756573742065787069726564202d20726571756573742061604482015268103732bb9039b834b760b91b60648201526084016101b3565b6001810154604051637e24239360e11b81526000916001600160a01b037f0000000000000000000000000000000000000000000000000000000000000000169163fc4847269161131f9160040190815260200190565b602060405180830381865afa925050508015611358575060408051601f3d908101601f1916820190925261135591810190611dc9565b60015b156113605790505b8061136d57506001810154405b806113d55760405162461bcd60e51b815260206004820152603260248201527f52616e646f6d6e65737320756e617661696c61626c65202d207265736f6c76656044820152712077697468696e2032303020626c6f636b7360701b60648201526084016101b3565b60006113e0856117ce565b9050600181511161142a5760405162461bcd60e51b815260206004820152601460248201527313db9b1e481bdb99481c1b185e595c881b19599d60621b60448201526064016101b3565b600082868560020154866001015461144186611b01565b6040805160208101969096528501939093526060840191909152608083015260a082015260c001604051602081830303815290604052805190602001209050600082518260001c6114929190611de2565b905060008382815181106114a8576114a8611e04565b60209081029190910181015160008a8152600690925260408220805460ff19168155600181018390556002019190915590506114e48882611b31565b6007870154604080516001600160a01b0384168152602081019290925289917f51479c93d7646904d2282e9e79cddf11999ac774b7fd0289e2f59cb4ad0f086a910160405180910390a25050505050505050565b600081815260016020526040812090600482015460ff16600281111561156057611560611c23565b146115a15760405162461bcd60e51b815260206004820152601160248201527047616d65206e6f74206a6f696e61626c6560781b60448201526064016101b3565b60018101546006116115e45760405162461bcd60e51b815260206004820152600c60248201526b11d85b59481a5cc8199d5b1b60a21b60448201526064016101b3565b6115ee8233611b9a565b1561162d5760405162461bcd60e51b815260206004820152600f60248201526e416c726561647920696e2067616d6560881b60448201526064016101b3565b670de0b6b3a764000034146116845760405162461bcd60e51b815260206004820152601860248201527f4d7573742073656e642065786163746c7920312043454c4f000000000000000060448201526064016101b3565b670de0b6b3a76400008160020154146116df5760405162461bcd60e51b815260206004820152601960248201527f47616d65207374616b65206d75737420626520312043454c4f0000000000000060448201526064016101b3565b60018082018054918201815560009081526020812090910180546001600160a01b03191633179055600382018054670de0b6b3a76400009290611723908490611d9d565b90915550506040805180820182526000808252602080830182815286835260028252848320338085529083528584209451855460ff1916901515178555905160019094019390935585825260038152838220838352905291909120670de0b6b3a7640000908190556117959190611978565b60405133815282907f87969bc7faf902221a147b95ceba76e011c5efb0339a0a8ee7a2bb82d9cfbbd69060200160405180910390a25050565b60008181526001602081905260408220606092910190805b82548110156118585760026000868152602001908152602001600020600084838154811061181657611816611e04565b60009182526020808320909101546001600160a01b0316835282019290925260400190205460ff16611850578161184c81611db0565b9250505b6001016117e6565b5060008167ffffffffffffffff81111561187457611874611e1a565b60405190808252806020026020018201604052801561189d578160200160208202803683370190505b5090506000805b845481101561196d576002600088815260200190815260200160002060008683815481106118d4576118d4611e04565b60009182526020808320909101546001600160a01b0316835282019290925260400190205460ff166119655784818154811061191257611912611e04565b6000918252602090912001546001600160a01b0316838361193281611db0565b94508151811061194457611944611e04565b60200260200101906001600160a01b031690816001600160a01b0316815250505b6001016118a4565b509095945050505050565b6001600160a01b038216600090815260056020526040812080549091829061199f83611db0565b9190505550818160030160008282546119b89190611d9d565b9091555050505050565b6000818152600160205260408120906119da836117ce565b90508051600114611a375760405162461bcd60e51b815260206004820152602160248201527f43616e6e6f7420636f6d706c6574653a206e6f20756e697175652077696e6e656044820152603960f91b60648201526084016101b3565b60048201805460ff1916600217905580518190600090611a5957611a59611e04565b6020908102919091018101516008840180546001600160a01b0319166001600160a01b0390921691821790556007840154600985015560405190815284917f7f40df5127524300187445e867486da572aab86769c0212e0b392bd87c4ca97f9101610fd1565b6001600160a01b03821660009081526005602052604081206001810180549192611ae883611db0565b9190505550818160020160008282546119b89190611d9d565b600081604051602001611b149190611e30565b604051602081830303815290604052805190602001209050919050565b60008281526002602090815260408083206001600160a01b038516808552818452828520805460ff19166001908117825588875280865293862060070154918652919093520155611b81836117ce565b90508051600103611b9557611b95836119c2565b505050565b6000828152600160208190526040822001815b8154811015611bff57836001600160a01b0316828281548110611bd257611bd2611e04565b6000918252602090912001546001600160a01b031603611bf7576001925050506108e9565b600101611bad565b506000949350505050565b600060208284031215611c1c57600080fd5b5035919050565b634e487b7160e01b600052602160045260246000fd5b6001600160a01b038a81168252602082018a90526040820189905261012082019060038910611c7857634e487b7160e01b600052602160045260246000fd5b8860608401528760808401528660a08401528560c084015280851660e084015250826101008301529a9950505050505050505050565b80356001600160a01b0381168114611cc557600080fd5b919050565b60008060408385031215611cdd57600080fd5b82359150611ced60208401611cae565b90509250929050565b6020808252825182820181905260009190848201906040850190845b81811015611d375783516001600160a01b031683529284019291840191600101611d12565b50909695505050505050565b60008060408385031215611d5657600080fd5b50508035926020909101359150565b600060208284031215611d7757600080fd5b611d8082611cae565b9392505050565b634e487b7160e01b600052601160045260246000fd5b808201808211156108e9576108e9611d87565b600060018201611dc257611dc2611d87565b5060010190565b600060208284031215611ddb57600080fd5b5051919050565b600082611dff57634e487b7160e01b600052601260045260246000fd5b500690565b634e487b7160e01b600052603260045260246000fd5b634e487b7160e01b600052604160045260246000fd5b815160009082906020808601845b83811015611e635781516001600160a01b031685529382019390820190600101611e3e565b5092969550505050505056fea2646970667358221220f016fbda0e942ad9f91d94457b7312ce585cfa7861eabe5a2563f013788f824a64736f6c63430008180033","opcodes":"PUSH1 0xA0 PUSH1 0x40 MSTORE CALLVALUE DUP1 ISZERO PUSH3 0x11 JUMPI PUSH1 0x0 DUP1 REVERT JUMPDEST POP PUSH1 0x40 MLOAD PUSH3 0x2071 CODESIZE SUB DUP1 PUSH3 0x2071 DUP4 CODECOPY DUP2 ADD PUSH1 0x40 DUP2 SWAP1 MSTORE PUSH3 0x34 SWAP2 PUSH3 0x170 JUMP JUMPDEST PUSH1 0x1 PUSH1 0x1 PUSH1 0xA0 SHL SUB DUP2 AND PUSH3 0x15B JUMPI PUSH1 0x40 MLOAD PUSH6 0x52616E646F6D PUSH1 0xD0 SHL PUSH1 0x20 DUP3 ADD MSTORE PUSH1 0x0 SWAP1 PUSH2 0xCE10 SWAP1 PUSH4 0xDD927233 SWAP1 PUSH1 0x26 ADD PUSH1 0x40 MLOAD PUSH1 0x20 DUP2 DUP4 SUB SUB DUP2 MSTORE SWAP1 PUSH1 0x40 MSTORE DUP1 MLOAD SWAP1 PUSH1 0x20 ADD KECCAK256 PUSH1 0x40 MLOAD DUP3 PUSH4 0xFFFFFFFF AND PUSH1 0xE0 SHL DUP2 MSTORE PUSH1 0x4 ADD PUSH3 0x9A SWAP2 DUP2 MSTORE PUSH1 0x20 ADD SWAP1 JUMP JUMPDEST PUSH1 0x20 PUSH1 0x40 MLOAD DUP1 DUP4 SUB DUP2 DUP7 GAS STATICCALL ISZERO DUP1 ISZERO PUSH3 0xB8 JUMPI RETURNDATASIZE PUSH1 0x0 DUP1 RETURNDATACOPY RETURNDATASIZE PUSH1 0x0 REVERT JUMPDEST POP POP POP POP PUSH1 0x40 MLOAD RETURNDATASIZE PUSH1 0x1F NOT PUSH1 0x1F DUP3 ADD AND DUP3 ADD DUP1 PUSH1 0x40 MSTORE POP DUP2 ADD SWAP1 PUSH3 0xDE SWAP2 SWAP1 PUSH3 0x170 JUMP JUMPDEST SWAP1 POP PUSH1 0x1 PUSH1 0x1 PUSH1 0xA0 SHL SUB DUP2 AND PUSH3 0x149 JUMPI PUSH1 0x40 MLOAD PUSH3 0x461BCD PUSH1 0xE5 SHL DUP2 MSTORE PUSH1 0x20 PUSH1 0x4 DUP3 ADD MSTORE PUSH1 0x25 PUSH1 0x24 DUP3 ADD MSTORE PUSH32 0x52616E646F6D20636F6E7472616374206E6F7420666F756E6420696E20726567 PUSH1 0x44 DUP3 ADD MSTORE PUSH5 0x6973747279 PUSH1 0xD8 SHL PUSH1 0x64 DUP3 ADD MSTORE PUSH1 0x84 ADD PUSH1 0x40 MLOAD DUP1 SWAP2 SUB SWAP1 REVERT JUMPDEST PUSH1 0x1 PUSH1 0x1 PUSH1 0xA0 SHL SUB AND PUSH1 0x80 MSTORE PUSH3 0x169 JUMP JUMPDEST PUSH1 0x1 PUSH1 0x1 PUSH1 0xA0 SHL SUB DUP2 AND PUSH1 0x80 MSTORE JUMPDEST POP PUSH3 0x1A2 JUMP JUMPDEST PUSH1 0x0 PUSH1 0x20 DUP3 DUP5 SUB SLT ISZERO PUSH3 0x183 JUMPI PUSH1 0x0 DUP1 REVERT JUMPDEST DUP2 MLOAD PUSH1 0x1 PUSH1 0x1 PUSH1 0xA0 SHL SUB DUP2 AND DUP2 EQ PUSH3 0x19B JUMPI PUSH1 0x0 DUP1 REVERT JUMPDEST SWAP4 SWAP3 POP POP POP JUMP JUMPDEST PUSH1 0x80 MLOAD PUSH2 0x1EA5 PUSH3 0x1CC PUSH1 0x0 CODECOPY PUSH1 0x0 DUP2 DUP2 PUSH2 0x481 ADD MSTORE DUP2 DUP2 PUSH2 0x575 ADD MSTORE PUSH2 0x12E8 ADD MSTORE PUSH2 0x1EA5 PUSH1 0x0 RETURN INVALID PUSH1 0x80 PUSH1 0x40 MSTORE PUSH1 0x4 CALLDATASIZE LT PUSH2 0x16A JUMPI PUSH1 0x0 CALLDATALOAD PUSH1 0xE0 SHR DUP1 PUSH4 0x952E88D1 GT PUSH2 0xD1 JUMPI DUP1 PUSH4 0xCB1C2B5C GT PUSH2 0x8A JUMPI DUP1 PUSH4 0xDFAB983C GT PUSH2 0x64 JUMPI DUP1 PUSH4 0xDFAB983C EQ PUSH2 0x5B7 JUMPI DUP1 PUSH4 0xE5ED1D59 EQ PUSH2 0x5F7 JUMPI DUP1 PUSH4 0xECA0D6AE EQ PUSH2 0x617 JUMPI DUP1 PUSH4 0xEFAA55A0 EQ PUSH2 0x637 JUMPI PUSH1 0x0 DUP1 REVERT JUMPDEST DUP1 PUSH4 0xCB1C2B5C EQ PUSH2 0x547 JUMPI DUP1 PUSH4 0xCCF69E9B EQ PUSH2 0x563 JUMPI DUP1 PUSH4 0xD7098154 EQ PUSH2 0x597 JUMPI PUSH1 0x0 DUP1 REVERT JUMPDEST DUP1 PUSH4 0x952E88D1 EQ PUSH2 0x472 JUMPI DUP1 PUSH4 0xA7BC4E30 EQ PUSH2 0x4B9 JUMPI DUP1 PUSH4 0xAB5669AD EQ PUSH2 0x4CE JUMPI DUP1 PUSH4 0xB8DA0C5B EQ PUSH2 0x4E3 JUMPI DUP1 PUSH4 0xC781BD7A EQ PUSH2 0x527 JUMPI DUP1 PUSH4 0xC98517C5 EQ PUSH2 0x547 JUMPI PUSH1 0x0 DUP1 REVERT JUMPDEST DUP1 PUSH4 0x342ED956 GT PUSH2 0x123 JUMPI DUP1 PUSH4 0x342ED956 EQ PUSH2 0x302 JUMPI DUP1 PUSH4 0x4411B3EB EQ PUSH2 0x32F JUMPI DUP1 PUSH4 0x4CBE6423 EQ PUSH2 0x344 JUMPI DUP1 PUSH4 0x60104CEF EQ PUSH2 0x3A1 JUMPI DUP1 PUSH4 0x6C617D98 EQ PUSH2 0x3B4 JUMPI DUP1 PUSH4 0x8A65D874 EQ PUSH2 0x410 JUMPI PUSH1 0x0 DUP1 REVERT JUMPDEST DUP1 PUSH4 0xAAA4548 EQ PUSH2 0x1C1 JUMPI DUP1 PUSH4 0x117A5B90 EQ PUSH2 0x1EA JUMPI DUP1 PUSH4 0x1556BDA1 EQ PUSH2 0x276 JUMPI DUP1 PUSH4 0x28A0B80F EQ PUSH2 0x2AE JUMPI DUP1 PUSH4 0x2D34A8DD EQ PUSH2 0x2D0 JUMPI DUP1 PUSH4 0x2E0BE39A EQ PUSH2 0x2EC JUMPI PUSH1 0x0 DUP1 REVERT JUMPDEST CALLDATASIZE PUSH2 0x1BC JUMPI PUSH1 0x40 MLOAD PUSH3 0x461BCD PUSH1 0xE5 SHL DUP2 MSTORE PUSH1 0x20 PUSH1 0x4 DUP3 ADD MSTORE PUSH1 0x1A PUSH1 0x24 DUP3 ADD MSTORE PUSH32 0x557365206A6F696E47616D65206F722063726561746547616D65000000000000 PUSH1 0x44 DUP3 ADD MSTORE PUSH1 0x64 ADD JUMPDEST PUSH1 0x40 MLOAD DUP1 SWAP2 SUB SWAP1 REVERT JUMPDEST PUSH1 0x0 DUP1 REVERT JUMPDEST CALLVALUE DUP1 ISZERO PUSH2 0x1CD JUMPI PUSH1 0x0 DUP1 REVERT JUMPDEST POP PUSH2 0x1D7 PUSH2 0x3E8 DUP2 JUMP JUMPDEST PUSH1 0x40 MLOAD SWAP1 DUP2 MSTORE PUSH1 0x20 ADD JUMPDEST PUSH1 0x40 MLOAD DUP1 SWAP2 SUB SWAP1 RETURN JUMPDEST CALLVALUE DUP1 ISZERO PUSH2 0x1F6 JUMPI PUSH1 0x0 DUP1 REVERT JUMPDEST POP PUSH2 0x261 PUSH2 0x205 CALLDATASIZE PUSH1 0x4 PUSH2 0x1C0A JUMP JUMPDEST PUSH1 0x1 PUSH1 0x20 MSTORE PUSH1 0x0 SWAP1 DUP2 MSTORE PUSH1 0x40 SWAP1 KECCAK256 DUP1 SLOAD PUSH1 0x2 DUP3 ADD SLOAD PUSH1 0x3 DUP4 ADD SLOAD PUSH1 0x4 DUP5 ADD SLOAD PUSH1 0x5 DUP6 ADD SLOAD PUSH1 0x6 DUP7 ADD SLOAD PUSH1 0x7 DUP8 ADD SLOAD PUSH1 0x8 DUP9 ADD SLOAD PUSH1 0x9 SWAP1 SWAP9 ADD SLOAD PUSH1 0x1 PUSH1 0x1 PUSH1 0xA0 SHL SUB SWAP8 DUP9 AND SWAP9 SWAP7 SWAP8 SWAP6 SWAP7 PUSH1 0xFF SWAP1 SWAP6 AND SWAP6 SWAP4 SWAP5 SWAP3 SWAP4 SWAP2 SWAP3 SWAP1 SWAP2 AND SWAP1 DUP10 JUMP JUMPDEST PUSH1 0x40 MLOAD PUSH2 0x1E1 SWAP10 SWAP9 SWAP8 SWAP7 SWAP6 SWAP5 SWAP4 SWAP3 SWAP2 SWAP1 PUSH2 0x1C39 JUMP JUMPDEST CALLVALUE DUP1 ISZERO PUSH2 0x282 JUMPI PUSH1 0x0 DUP1 REVERT JUMPDEST POP PUSH2 0x1D7 PUSH2 0x291 CALLDATASIZE PUSH1 0x4 PUSH2 0x1CCA JUMP JUMPDEST PUSH1 0x3 PUSH1 0x20 SWAP1 DUP2 MSTORE PUSH1 0x0 SWAP3 DUP4 MSTORE PUSH1 0x40 DUP1 DUP5 KECCAK256 SWAP1 SWAP2 MSTORE SWAP1 DUP3 MSTORE SWAP1 KECCAK256 SLOAD DUP2 JUMP JUMPDEST CALLVALUE DUP1 ISZERO PUSH2 0x2BA JUMPI PUSH1 0x0 DUP1 REVERT JUMPDEST POP PUSH2 0x2CE PUSH2 0x2C9 CALLDATASIZE PUSH1 0x4 PUSH2 0x1C0A JUMP JUMPDEST PUSH2 0x64A JUMP JUMPDEST STOP JUMPDEST CALLVALUE DUP1 ISZERO PUSH2 0x2DC JUMPI PUSH1 0x0 DUP1 REVERT JUMPDEST POP PUSH2 0x1D7 PUSH8 0x4563918244F40000 DUP2 JUMP JUMPDEST CALLVALUE DUP1 ISZERO PUSH2 0x2F8 JUMPI PUSH1 0x0 DUP1 REVERT JUMPDEST POP PUSH2 0x1D7 PUSH1 0x0 SLOAD DUP2 JUMP JUMPDEST CALLVALUE DUP1 ISZERO PUSH2 0x30E JUMPI PUSH1 0x0 DUP1 REVERT JUMPDEST POP PUSH2 0x322 PUSH2 0x31D CALLDATASIZE PUSH1 0x4 PUSH2 0x1C0A JUMP JUMPDEST PUSH2 0x8DE JUMP JUMPDEST PUSH1 0x40 MLOAD PUSH2 0x1E1 SWAP2 SWAP1 PUSH2 0x1CF6 JUMP JUMPDEST CALLVALUE DUP1 ISZERO PUSH2 0x33B JUMPI PUSH1 0x0 DUP1 REVERT JUMPDEST POP PUSH2 0x1D7 PUSH1 0x6 DUP2 JUMP JUMPDEST CALLVALUE DUP1 ISZERO PUSH2 0x350 JUMPI PUSH1 0x0 DUP1 REVERT JUMPDEST POP PUSH2 0x384 PUSH2 0x35F CALLDATASIZE PUSH1 0x4 PUSH2 0x1C0A JUMP JUMPDEST PUSH1 0x6 PUSH1 0x20 MSTORE PUSH1 0x0 SWAP1 DUP2 MSTORE PUSH1 0x40 SWAP1 KECCAK256 DUP1 SLOAD PUSH1 0x1 DUP3 ADD SLOAD PUSH1 0x2 SWAP1 SWAP3 ADD SLOAD PUSH1 0xFF SWAP1 SWAP2 AND SWAP2 SWAP1 DUP4 JUMP JUMPDEST PUSH1 0x40 DUP1 MLOAD SWAP4 ISZERO ISZERO DUP5 MSTORE PUSH1 0x20 DUP5 ADD SWAP3 SWAP1 SWAP3 MSTORE SWAP1 DUP3 ADD MSTORE PUSH1 0x60 ADD PUSH2 0x1E1 JUMP JUMPDEST PUSH2 0x1D7 PUSH2 0x3AF CALLDATASIZE PUSH1 0x4 PUSH2 0x1D43 JUMP JUMPDEST PUSH2 0x8EF JUMP JUMPDEST CALLVALUE DUP1 ISZERO PUSH2 0x3C0 JUMPI PUSH1 0x0 DUP1 REVERT JUMPDEST POP PUSH2 0x3F9 PUSH2 0x3CF CALLDATASIZE PUSH1 0x4 PUSH2 0x1CCA JUMP JUMPDEST PUSH1 0x2 PUSH1 0x20 SWAP1 DUP2 MSTORE PUSH1 0x0 SWAP3 DUP4 MSTORE PUSH1 0x40 DUP1 DUP5 KECCAK256 SWAP1 SWAP2 MSTORE SWAP1 DUP3 MSTORE SWAP1 KECCAK256 DUP1 SLOAD PUSH1 0x1 SWAP1 SWAP2 ADD SLOAD PUSH1 0xFF SWAP1 SWAP2 AND SWAP1 DUP3 JUMP JUMPDEST PUSH1 0x40 DUP1 MLOAD SWAP3 ISZERO ISZERO DUP4 MSTORE PUSH1 0x20 DUP4 ADD SWAP2 SWAP1 SWAP2 MSTORE ADD PUSH2 0x1E1 JUMP JUMPDEST CALLVALUE DUP1 ISZERO PUSH2 0x41C JUMPI PUSH1 0x0 DUP1 REVERT JUMPDEST POP PUSH2 0x452 PUSH2 0x42B CALLDATASIZE PUSH1 0x4 PUSH2 0x1D65 JUMP JUMPDEST PUSH1 0x5 PUSH1 0x20 MSTORE PUSH1 0x0 SWAP1 DUP2 MSTORE PUSH1 0x40 SWAP1 KECCAK256 DUP1 SLOAD PUSH1 0x1 DUP3 ADD SLOAD PUSH1 0x2 DUP4 ADD SLOAD PUSH1 0x3 SWAP1 SWAP4 ADD SLOAD SWAP2 SWAP3 SWAP1 SWAP2 DUP5 JUMP JUMPDEST PUSH1 0x40 DUP1 MLOAD SWAP5 DUP6 MSTORE PUSH1 0x20 DUP6 ADD SWAP4 SWAP1 SWAP4 MSTORE SWAP2 DUP4 ADD MSTORE PUSH1 0x60 DUP3 ADD MSTORE PUSH1 0x80 ADD PUSH2 0x1E1 JUMP JUMPDEST CALLVALUE DUP1 ISZERO PUSH2 0x47E JUMPI PUSH1 0x0 DUP1 REVERT JUMPDEST POP PUSH32 0x0 JUMPDEST PUSH1 0x40 MLOAD PUSH1 0x1 PUSH1 0x1 PUSH1 0xA0 SHL SUB SWAP1 SWAP2 AND DUP2 MSTORE PUSH1 0x20 ADD PUSH2 0x1E1 JUMP JUMPDEST CALLVALUE DUP1 ISZERO PUSH2 0x4C5 JUMPI PUSH1 0x0 DUP1 REVERT JUMPDEST POP PUSH2 0x1D7 PUSH1 0x1 DUP2 JUMP JUMPDEST CALLVALUE DUP1 ISZERO PUSH2 0x4DA JUMPI PUSH1 0x0 DUP1 REVERT JUMPDEST POP PUSH2 0x1D7 PUSH1 0xA DUP2 JUMP JUMPDEST CALLVALUE DUP1 ISZERO PUSH2 0x4EF JUMPI PUSH1 0x0 DUP1 REVERT JUMPDEST POP PUSH2 0x503 PUSH2 0x4FE CALLDATASIZE PUSH1 0x4 PUSH2 0x1C0A JUMP JUMPDEST PUSH2 0xB68 JUMP JUMPDEST PUSH1 0x40 DUP1 MLOAD DUP3 MLOAD ISZERO ISZERO DUP2 MSTORE PUSH1 0x20 DUP1 DUP5 ADD MLOAD SWAP1 DUP3 ADD MSTORE SWAP2 DUP2 ADD MLOAD SWAP1 DUP3 ADD MSTORE PUSH1 0x60 ADD PUSH2 0x1E1 JUMP JUMPDEST CALLVALUE DUP1 ISZERO PUSH2 0x533 JUMPI PUSH1 0x0 DUP1 REVERT JUMPDEST POP PUSH2 0x2CE PUSH2 0x542 CALLDATASIZE PUSH1 0x4 PUSH2 0x1C0A JUMP JUMPDEST PUSH2 0xBCC JUMP JUMPDEST CALLVALUE DUP1 ISZERO PUSH2 0x553 JUMPI PUSH1 0x0 DUP1 REVERT JUMPDEST POP PUSH2 0x1D7 PUSH8 0xDE0B6B3A7640000 DUP2 JUMP JUMPDEST CALLVALUE DUP1 ISZERO PUSH2 0x56F JUMPI PUSH1 0x0 DUP1 REVERT JUMPDEST POP PUSH2 0x4A1 PUSH32 0x0 DUP2 JUMP JUMPDEST CALLVALUE DUP1 ISZERO PUSH2 0x5A3 JUMPI PUSH1 0x0 DUP1 REVERT JUMPDEST POP PUSH2 0x2CE PUSH2 0x5B2 CALLDATASIZE PUSH1 0x4 PUSH2 0x1C0A JUMP JUMPDEST PUSH2 0xD88 JUMP JUMPDEST CALLVALUE DUP1 ISZERO PUSH2 0x5C3 JUMPI PUSH1 0x0 DUP1 REVERT JUMPDEST POP PUSH2 0x5E7 PUSH2 0x5D2 CALLDATASIZE PUSH1 0x4 PUSH2 0x1C0A JUMP JUMPDEST PUSH1 0x4 PUSH1 0x20 MSTORE PUSH1 0x0 SWAP1 DUP2 MSTORE PUSH1 0x40 SWAP1 KECCAK256 SLOAD PUSH1 0xFF AND DUP2 JUMP JUMPDEST PUSH1 0x40 MLOAD SWAP1 ISZERO ISZERO DUP2 MSTORE PUSH1 0x20 ADD PUSH2 0x1E1 JUMP JUMPDEST CALLVALUE DUP1 ISZERO PUSH2 0x603 JUMPI PUSH1 0x0 DUP1 REVERT JUMPDEST POP PUSH2 0x2CE PUSH2 0x612 CALLDATASIZE PUSH1 0x4 PUSH2 0x1C0A JUMP JUMPDEST PUSH2 0xFDE JUMP JUMPDEST CALLVALUE DUP1 ISZERO PUSH2 0x623 JUMPI PUSH1 0x0 DUP1 REVERT JUMPDEST POP PUSH2 0x2CE PUSH2 0x632 CALLDATASIZE PUSH1 0x4 PUSH2 0x1C0A JUMP JUMPDEST PUSH2 0x113D JUMP JUMPDEST PUSH2 0x2CE PUSH2 0x645 CALLDATASIZE PUSH1 0x4 PUSH2 0x1C0A JUMP JUMPDEST PUSH2 0x1538 JUMP JUMPDEST PUSH1 0x0 DUP2 DUP2 MSTORE PUSH1 0x1 PUSH1 0x20 MSTORE PUSH1 0x40 SWAP1 KECCAK256 DUP1 SLOAD PUSH1 0x1 PUSH1 0x1 PUSH1 0xA0 SHL SUB AND CALLER EQ PUSH2 0x6A6 JUMPI PUSH1 0x40 MLOAD PUSH3 0x461BCD PUSH1 0xE5 SHL DUP2 MSTORE PUSH1 0x20 PUSH1 0x4 DUP3 ADD MSTORE PUSH1 0x12 PUSH1 0x24 DUP3 ADD MSTORE PUSH18 0x27B7363C903437B9BA1031B0B71039B834B7 PUSH1 0x71 SHL PUSH1 0x44 DUP3 ADD MSTORE PUSH1 0x64 ADD PUSH2 0x1B3 JUMP JUMPDEST PUSH1 0x1 PUSH1 0x4 DUP3 ADD SLOAD PUSH1 0xFF AND PUSH1 0x2 DUP2 GT ISZERO PUSH2 0x6C1 JUMPI PUSH2 0x6C1 PUSH2 0x1C23 JUMP JUMPDEST EQ PUSH2 0x705 JUMPI PUSH1 0x40 MLOAD PUSH3 0x461BCD PUSH1 0xE5 SHL DUP2 MSTORE PUSH1 0x20 PUSH1 0x4 DUP3 ADD MSTORE PUSH1 0x14 PUSH1 0x24 DUP3 ADD MSTORE PUSH20 0x47616D65206E6F7420696E2070726F6772657373 PUSH1 0x60 SHL PUSH1 0x44 DUP3 ADD MSTORE PUSH1 0x64 ADD PUSH2 0x1B3 JUMP JUMPDEST DUP1 PUSH1 0x6 ADD SLOAD NUMBER GT ISZERO PUSH2 0x74D JUMPI PUSH1 0x40 MLOAD PUSH3 0x461BCD PUSH1 0xE5 SHL DUP2 MSTORE PUSH1 0x20 PUSH1 0x4 DUP3 ADD MSTORE PUSH1 0x11 PUSH1 0x24 DUP3 ADD MSTORE PUSH17 0x149BDD5B99081A185CC8195E1C1A5C9959 PUSH1 0x7A SHL PUSH1 0x44 DUP3 ADD MSTORE PUSH1 0x64 ADD PUSH2 0x1B3 JUMP JUMPDEST PUSH1 0x0 DUP3 DUP2 MSTORE PUSH1 0x6 PUSH1 0x20 MSTORE PUSH1 0x40 SWAP1 KECCAK256 DUP1 SLOAD PUSH1 0xFF AND DUP1 ISZERO PUSH2 0x77A JUMPI POP PUSH1 0x1 DUP2 ADD SLOAD PUSH2 0x777 SWAP1 PUSH1 0xC8 PUSH2 0x1D9D JUMP JUMPDEST NUMBER GT JUMPDEST ISZERO PUSH2 0x7A1 JUMPI PUSH1 0x0 DUP4 DUP2 MSTORE PUSH1 0x6 PUSH1 0x20 MSTORE PUSH1 0x40 DUP2 KECCAK256 DUP1 SLOAD PUSH1 0xFF NOT AND DUP2 SSTORE PUSH1 0x1 DUP2 ADD DUP3 SWAP1 SSTORE PUSH1 0x2 ADD SSTORE JUMPDEST PUSH1 0x0 DUP4 DUP2 MSTORE PUSH1 0x6 PUSH1 0x20 MSTORE PUSH1 0x40 SWAP1 KECCAK256 SLOAD PUSH1 0xFF AND ISZERO PUSH2 0x7F7 JUMPI PUSH1 0x40 MLOAD PUSH3 0x461BCD PUSH1 0xE5 SHL DUP2 MSTORE PUSH1 0x20 PUSH1 0x4 DUP3 ADD MSTORE PUSH1 0x14 PUSH1 0x24 DUP3 ADD MSTORE PUSH20 0x5370696E20616C72656164792070656E64696E67 PUSH1 0x60 SHL PUSH1 0x44 DUP3 ADD MSTORE PUSH1 0x64 ADD PUSH2 0x1B3 JUMP JUMPDEST PUSH1 0x0 PUSH2 0x802 DUP5 PUSH2 0x17CE JUMP JUMPDEST SWAP1 POP PUSH1 0x1 DUP2 MLOAD GT PUSH2 0x84C JUMPI PUSH1 0x40 MLOAD PUSH3 0x461BCD PUSH1 0xE5 SHL DUP2 MSTORE PUSH1 0x20 PUSH1 0x4 DUP3 ADD MSTORE PUSH1 0x14 PUSH1 0x24 DUP3 ADD MSTORE PUSH20 0x13DB9B1E481BDB99481C1B185E595C881B19599D PUSH1 0x62 SHL PUSH1 0x44 DUP3 ADD MSTORE PUSH1 0x64 ADD PUSH2 0x1B3 JUMP JUMPDEST PUSH1 0x40 DUP1 MLOAD PUSH1 0x60 DUP2 ADD DUP3 MSTORE PUSH1 0x1 DUP1 DUP3 MSTORE NUMBER PUSH1 0x20 DUP1 DUP5 ADD DUP3 DUP2 MSTORE PUSH1 0x7 DUP10 ADD DUP1 SLOAD DUP7 DUP9 ADD SWAP1 DUP2 MSTORE PUSH1 0x0 DUP13 DUP2 MSTORE PUSH1 0x6 DUP6 MSTORE DUP9 SWAP1 KECCAK256 SWAP7 MLOAD DUP8 SLOAD PUSH1 0xFF NOT AND SWAP1 ISZERO ISZERO OR DUP8 SSTORE SWAP2 MLOAD SWAP5 DUP7 ADD SWAP5 SWAP1 SWAP5 SSTORE MLOAD PUSH1 0x2 SWAP1 SWAP5 ADD SWAP4 SWAP1 SWAP4 SSTORE SWAP1 SLOAD DUP4 MLOAD SWAP2 DUP3 MSTORE SWAP2 DUP2 ADD SWAP2 SWAP1 SWAP2 MSTORE DUP6 SWAP2 PUSH32 0x23CD5F4A12318F3C49DF28957A6E8FAA44E9C004E2FCD561199623298445DFD0 SWAP2 ADD PUSH1 0x40 MLOAD DUP1 SWAP2 SUB SWAP1 LOG2 POP POP POP POP JUMP JUMPDEST PUSH1 0x60 PUSH2 0x8E9 DUP3 PUSH2 0x17CE JUMP JUMPDEST SWAP3 SWAP2 POP POP JUMP JUMPDEST PUSH1 0x0 PUSH8 0xDE0B6B3A7640000 DUP4 EQ PUSH2 0x948 JUMPI PUSH1 0x40 MLOAD PUSH3 0x461BCD PUSH1 0xE5 SHL DUP2 MSTORE PUSH1 0x20 PUSH1 0x4 DUP3 ADD MSTORE PUSH1 0x1C PUSH1 0x24 DUP3 ADD MSTORE PUSH32 0x5374616B65206D7573742062652065786163746C7920312043454C4F00000000 PUSH1 0x44 DUP3 ADD MSTORE PUSH1 0x64 ADD PUSH2 0x1B3 JUMP JUMPDEST PUSH1 0xA DUP3 LT ISZERO DUP1 ISZERO PUSH2 0x95B JUMPI POP PUSH2 0x3E8 DUP3 GT ISZERO JUMPDEST PUSH2 0x99A JUMPI PUSH1 0x40 MLOAD PUSH3 0x461BCD PUSH1 0xE5 SHL DUP2 MSTORE PUSH1 0x20 PUSH1 0x4 DUP3 ADD MSTORE PUSH1 0x10 PUSH1 0x24 DUP3 ADD MSTORE PUSH16 0x24B73B30B634B210323AB930BA34B7B7 PUSH1 0x81 SHL PUSH1 0x44 DUP3 ADD MSTORE PUSH1 0x64 ADD PUSH2 0x1B3 JUMP JUMPDEST PUSH8 0xDE0B6B3A7640000 CALLVALUE EQ PUSH2 0x9FB JUMPI PUSH1 0x40 MLOAD PUSH3 0x461BCD PUSH1 0xE5 SHL DUP2 MSTORE PUSH1 0x20 PUSH1 0x4 DUP3 ADD MSTORE PUSH1 0x21 PUSH1 0x24 DUP3 ADD MSTORE PUSH32 0x4D7573742073656E642065786163746C7920312043454C4F206173207374616B PUSH1 0x44 DUP3 ADD MSTORE PUSH1 0x65 PUSH1 0xF8 SHL PUSH1 0x64 DUP3 ADD MSTORE PUSH1 0x84 ADD PUSH2 0x1B3 JUMP JUMPDEST PUSH8 0x4563918244F40000 CALLER BALANCE LT ISZERO PUSH2 0xA54 JUMPI PUSH1 0x40 MLOAD PUSH3 0x461BCD PUSH1 0xE5 SHL DUP2 MSTORE PUSH1 0x20 PUSH1 0x4 DUP3 ADD MSTORE PUSH1 0x1E PUSH1 0x24 DUP3 ADD MSTORE PUSH32 0x486F7374206D75737420686F6C64206174206C6561737420352043454C4F0000 PUSH1 0x44 DUP3 ADD MSTORE PUSH1 0x64 ADD PUSH2 0x1B3 JUMP JUMPDEST PUSH1 0x0 DUP1 SLOAD SWAP1 DUP1 PUSH2 0xA63 DUP4 PUSH2 0x1DB0 JUMP JUMPDEST SWAP1 SWAP2 SSTORE POP POP PUSH1 0x0 DUP1 SLOAD DUP2 MSTORE PUSH1 0x1 PUSH1 0x20 DUP2 DUP2 MSTORE PUSH1 0x40 DUP1 DUP5 KECCAK256 DUP1 SLOAD CALLER PUSH1 0x1 PUSH1 0x1 PUSH1 0xA0 SHL SUB NOT SWAP2 DUP3 AND DUP2 OR DUP4 SSTORE PUSH8 0xDE0B6B3A7640000 PUSH1 0x2 DUP1 DUP6 ADD DUP3 SWAP1 SSTORE PUSH1 0x3 DUP1 DUP7 ADD DUP4 SWAP1 SSTORE PUSH1 0x4 DUP7 ADD DUP1 SLOAD PUSH1 0xFF NOT SWAP1 DUP2 AND SWAP1 SWAP2 SSTORE PUSH1 0x5 DUP8 ADD DUP14 SWAP1 SSTORE DUP7 DUP11 ADD DUP1 SLOAD DUP1 DUP13 ADD DUP3 SSTORE SWAP1 DUP13 MSTORE DUP10 DUP13 KECCAK256 ADD DUP1 SLOAD SWAP1 SWAP7 AND DUP6 OR SWAP1 SWAP6 SSTORE DUP7 MLOAD DUP1 DUP9 ADD DUP9 MSTORE DUP11 DUP2 MSTORE DUP1 DUP10 ADD DUP12 DUP2 MSTORE DUP12 SLOAD DUP13 MSTORE SWAP3 DUP10 MSTORE DUP8 DUP12 KECCAK256 DUP6 DUP13 MSTORE DUP10 MSTORE DUP8 DUP12 KECCAK256 SWAP1 MLOAD DUP2 SLOAD SWAP1 ISZERO ISZERO SWAP7 AND SWAP6 SWAP1 SWAP6 OR DUP6 SSTORE SWAP1 MLOAD SWAP4 SWAP1 SWAP8 ADD SWAP3 SWAP1 SWAP3 SSTORE DUP7 SLOAD DUP8 MSTORE SWAP5 DUP5 MSTORE DUP3 DUP7 KECCAK256 DUP6 DUP8 MSTORE SWAP1 SWAP4 MSTORE SWAP4 KECCAK256 DUP2 SWAP1 SSTORE PUSH2 0xB31 SWAP2 SWAP1 PUSH2 0x1978 JUMP JUMPDEST PUSH1 0x0 DUP1 SLOAD PUSH1 0x40 MLOAD SWAP1 SWAP2 PUSH32 0xBD19C47E9925EB6F7BE8BB1C13A841E0240AAEAF17F217E90022E9C8EB66877F SWAP2 LOG2 POP POP PUSH1 0x0 SLOAD SWAP3 SWAP2 POP POP JUMP JUMPDEST PUSH2 0xB8E PUSH1 0x40 MLOAD DUP1 PUSH1 0x60 ADD PUSH1 0x40 MSTORE DUP1 PUSH1 0x0 ISZERO ISZERO DUP2 MSTORE PUSH1 0x20 ADD PUSH1 0x0 DUP2 MSTORE PUSH1 0x20 ADD PUSH1 0x0 DUP2 MSTORE POP SWAP1 JUMP JUMPDEST POP PUSH1 0x0 SWAP1 DUP2 MSTORE PUSH1 0x6 PUSH1 0x20 SWAP1 DUP2 MSTORE PUSH1 0x40 SWAP2 DUP3 SWAP1 KECCAK256 DUP3 MLOAD PUSH1 0x60 DUP2 ADD DUP5 MSTORE DUP2 SLOAD PUSH1 0xFF AND ISZERO ISZERO DUP2 MSTORE PUSH1 0x1 DUP3 ADD SLOAD SWAP3 DUP2 ADD SWAP3 SWAP1 SWAP3 MSTORE PUSH1 0x2 ADD SLOAD SWAP2 DUP2 ADD SWAP2 SWAP1 SWAP2 MSTORE SWAP1 JUMP JUMPDEST PUSH1 0x0 DUP2 DUP2 MSTORE PUSH1 0x1 PUSH1 0x20 DUP2 SWAP1 MSTORE PUSH1 0x40 SWAP1 SWAP2 KECCAK256 SWAP1 PUSH1 0x4 DUP3 ADD SLOAD PUSH1 0xFF AND PUSH1 0x2 DUP2 GT ISZERO PUSH2 0xBF7 JUMPI PUSH2 0xBF7 PUSH2 0x1C23 JUMP JUMPDEST EQ PUSH2 0xC36 JUMPI PUSH1 0x40 MLOAD PUSH3 0x461BCD PUSH1 0xE5 SHL DUP2 MSTORE PUSH1 0x20 PUSH1 0x4 DUP3 ADD MSTORE PUSH1 0xF PUSH1 0x24 DUP3 ADD MSTORE PUSH15 0x4E6F7420696E2070726F6772657373 PUSH1 0x88 SHL PUSH1 0x44 DUP3 ADD MSTORE PUSH1 0x64 ADD PUSH2 0x1B3 JUMP JUMPDEST DUP1 PUSH1 0x6 ADD SLOAD NUMBER GT PUSH2 0xC7F JUMPI PUSH1 0x40 MLOAD PUSH3 0x461BCD PUSH1 0xE5 SHL DUP2 MSTORE PUSH1 0x20 PUSH1 0x4 DUP3 ADD MSTORE PUSH1 0x13 PUSH1 0x24 DUP3 ADD MSTORE PUSH19 0x149BDD5B99081B9BDD08195B991959081E595D PUSH1 0x6A SHL PUSH1 0x44 DUP3 ADD MSTORE PUSH1 0x64 ADD PUSH2 0x1B3 JUMP JUMPDEST PUSH1 0x0 DUP3 DUP2 MSTORE PUSH1 0x6 PUSH1 0x20 MSTORE PUSH1 0x40 SWAP1 KECCAK256 DUP1 SLOAD PUSH1 0xFF AND DUP1 ISZERO PUSH2 0xCAC JUMPI POP PUSH1 0x1 DUP2 ADD SLOAD PUSH2 0xCA9 SWAP1 PUSH1 0xC8 PUSH2 0x1D9D JUMP JUMPDEST NUMBER GT JUMPDEST ISZERO PUSH2 0xCD3 JUMPI PUSH1 0x0 DUP4 DUP2 MSTORE PUSH1 0x6 PUSH1 0x20 MSTORE PUSH1 0x40 DUP2 KECCAK256 DUP1 SLOAD PUSH1 0xFF NOT AND DUP2 SSTORE PUSH1 0x1 DUP2 ADD DUP3 SWAP1 SSTORE PUSH1 0x2 ADD SSTORE JUMPDEST PUSH1 0x0 DUP4 DUP2 MSTORE PUSH1 0x6 PUSH1 0x20 MSTORE PUSH1 0x40 SWAP1 KECCAK256 SLOAD PUSH1 0xFF AND ISZERO PUSH2 0xD32 JUMPI PUSH1 0x40 MLOAD PUSH3 0x461BCD PUSH1 0xE5 SHL DUP2 MSTORE PUSH1 0x20 PUSH1 0x4 DUP3 ADD MSTORE PUSH1 0x1A PUSH1 0x24 DUP3 ADD MSTORE PUSH32 0x5265736F6C76652070656E64696E67207370696E206669727374000000000000 PUSH1 0x44 DUP3 ADD MSTORE PUSH1 0x64 ADD PUSH2 0x1B3 JUMP JUMPDEST PUSH1 0x0 PUSH2 0xD3D DUP5 PUSH2 0x17CE JUMP JUMPDEST SWAP1 POP PUSH1 0x1 DUP2 MLOAD GT PUSH2 0xD56 JUMPI PUSH2 0xD51 DUP5 PUSH2 0x19C2 JUMP JUMPDEST PUSH2 0xD82 JUMP JUMPDEST PUSH1 0x7 DUP4 ADD DUP1 SLOAD SWAP1 PUSH1 0x0 PUSH2 0xD68 DUP4 PUSH2 0x1DB0 JUMP JUMPDEST SWAP1 SWAP2 SSTORE POP POP PUSH1 0x5 DUP4 ADD SLOAD PUSH2 0xD7C SWAP1 NUMBER PUSH2 0x1D9D JUMP JUMPDEST PUSH1 0x6 DUP5 ADD SSTORE JUMPDEST POP POP POP POP JUMP JUMPDEST PUSH1 0x0 DUP2 DUP2 MSTORE PUSH1 0x1 PUSH1 0x20 MSTORE PUSH1 0x40 SWAP1 KECCAK256 PUSH1 0x2 PUSH1 0x4 DUP3 ADD SLOAD PUSH1 0xFF AND PUSH1 0x2 DUP2 GT ISZERO PUSH2 0xDB1 JUMPI PUSH2 0xDB1 PUSH2 0x1C23 JUMP JUMPDEST EQ PUSH2 0xDF3 JUMPI PUSH1 0x40 MLOAD PUSH3 0x461BCD PUSH1 0xE5 SHL DUP2 MSTORE PUSH1 0x20 PUSH1 0x4 DUP3 ADD MSTORE PUSH1 0x12 PUSH1 0x24 DUP3 ADD MSTORE PUSH18 0x11D85B59481B9BDD0818DBDB5C1B195D1959 PUSH1 0x72 SHL PUSH1 0x44 DUP3 ADD MSTORE PUSH1 0x64 ADD PUSH2 0x1B3 JUMP JUMPDEST PUSH1 0x8 DUP2 ADD SLOAD PUSH1 0x1 PUSH1 0x1 PUSH1 0xA0 SHL SUB AND PUSH2 0xE3D JUMPI PUSH1 0x40 MLOAD PUSH3 0x461BCD PUSH1 0xE5 SHL DUP2 MSTORE PUSH1 0x20 PUSH1 0x4 DUP3 ADD MSTORE PUSH1 0xD PUSH1 0x24 DUP3 ADD MSTORE PUSH13 0x139BC81DDA5B9B995C881CD95D PUSH1 0x9A SHL PUSH1 0x44 DUP3 ADD MSTORE PUSH1 0x64 ADD PUSH2 0x1B3 JUMP JUMPDEST PUSH1 0x8 DUP2 ADD SLOAD PUSH1 0x1 PUSH1 0x1 PUSH1 0xA0 SHL SUB AND CALLER EQ PUSH2 0xE8A JUMPI PUSH1 0x40 MLOAD PUSH3 0x461BCD PUSH1 0xE5 SHL DUP2 MSTORE PUSH1 0x20 PUSH1 0x4 DUP3 ADD MSTORE PUSH1 0xE PUSH1 0x24 DUP3 ADD MSTORE PUSH14 0x2737BA103A3432903BB4B73732B9 PUSH1 0x91 SHL PUSH1 0x44 DUP3 ADD MSTORE PUSH1 0x64 ADD PUSH2 0x1B3 JUMP JUMPDEST PUSH1 0x0 DUP3 DUP2 MSTORE PUSH1 0x4 PUSH1 0x20 MSTORE PUSH1 0x40 SWAP1 KECCAK256 SLOAD PUSH1 0xFF AND ISZERO PUSH2 0xEE1 JUMPI PUSH1 0x40 MLOAD PUSH3 0x461BCD PUSH1 0xE5 SHL DUP2 MSTORE PUSH1 0x20 PUSH1 0x4 DUP3 ADD MSTORE PUSH1 0x15 PUSH1 0x24 DUP3 ADD MSTORE PUSH21 0x141C9A5E9948185B1C9958591E4818DB185A5B5959 PUSH1 0x5A SHL PUSH1 0x44 DUP3 ADD MSTORE PUSH1 0x64 ADD PUSH2 0x1B3 JUMP JUMPDEST PUSH1 0x0 DUP3 DUP2 MSTORE PUSH1 0x4 PUSH1 0x20 MSTORE PUSH1 0x40 SWAP1 KECCAK256 DUP1 SLOAD PUSH1 0xFF NOT AND PUSH1 0x1 OR SWAP1 SSTORE PUSH1 0x3 DUP2 ADD SLOAD PUSH2 0xF0A SWAP1 CALLER SWAP1 PUSH2 0x1ABF JUMP JUMPDEST PUSH1 0x3 DUP2 ADD SLOAD PUSH1 0x40 MLOAD PUSH1 0x0 SWAP2 CALLER SWAP2 DUP4 DUP2 DUP2 DUP2 DUP6 DUP8 GAS CALL SWAP3 POP POP POP RETURNDATASIZE DUP1 PUSH1 0x0 DUP2 EQ PUSH2 0xF4F JUMPI PUSH1 0x40 MLOAD SWAP2 POP PUSH1 0x1F NOT PUSH1 0x3F RETURNDATASIZE ADD AND DUP3 ADD PUSH1 0x40 MSTORE RETURNDATASIZE DUP3 MSTORE RETURNDATASIZE PUSH1 0x0 PUSH1 0x20 DUP5 ADD RETURNDATACOPY PUSH2 0xF54 JUMP JUMPDEST PUSH1 0x60 SWAP2 POP JUMPDEST POP POP SWAP1 POP DUP1 PUSH2 0xF97 JUMPI PUSH1 0x40 MLOAD PUSH3 0x461BCD PUSH1 0xE5 SHL DUP2 MSTORE PUSH1 0x20 PUSH1 0x4 DUP3 ADD MSTORE PUSH1 0xF PUSH1 0x24 DUP3 ADD MSTORE PUSH15 0x151C985B9CD9995C8819985A5B1959 PUSH1 0x8A SHL PUSH1 0x44 DUP3 ADD MSTORE PUSH1 0x64 ADD PUSH2 0x1B3 JUMP JUMPDEST PUSH1 0x3 DUP3 ADD SLOAD PUSH1 0x40 DUP1 MLOAD CALLER DUP2 MSTORE PUSH1 0x20 DUP2 ADD SWAP3 SWAP1 SWAP3 MSTORE DUP5 SWAP2 PUSH32 0x4AA95F981A8337CB337DE335B965507DA0879C3B49F799D20058E913F5AD2C26 SWAP2 ADD JUMPDEST PUSH1 0x40 MLOAD DUP1 SWAP2 SUB SWAP1 LOG2 POP POP POP JUMP JUMPDEST PUSH1 0x0 DUP2 DUP2 MSTORE PUSH1 0x1 PUSH1 0x20 MSTORE PUSH1 0x40 DUP2 KECCAK256 SWAP1 PUSH1 0x4 DUP3 ADD SLOAD PUSH1 0xFF AND PUSH1 0x2 DUP2 GT ISZERO PUSH2 0x1006 JUMPI PUSH2 0x1006 PUSH2 0x1C23 JUMP JUMPDEST EQ PUSH2 0x1044 JUMPI PUSH1 0x40 MLOAD PUSH3 0x461BCD PUSH1 0xE5 SHL DUP2 MSTORE PUSH1 0x20 PUSH1 0x4 DUP3 ADD MSTORE PUSH1 0xE PUSH1 0x24 DUP3 ADD MSTORE PUSH14 0x47616D65206E6F74207265616479 PUSH1 0x90 SHL PUSH1 0x44 DUP3 ADD MSTORE PUSH1 0x64 ADD PUSH2 0x1B3 JUMP JUMPDEST DUP1 SLOAD PUSH1 0x1 PUSH1 0x1 PUSH1 0xA0 SHL SUB AND CALLER EQ PUSH2 0x1096 JUMPI PUSH1 0x40 MLOAD PUSH3 0x461BCD PUSH1 0xE5 SHL DUP2 MSTORE PUSH1 0x20 PUSH1 0x4 DUP3 ADD MSTORE PUSH1 0x16 PUSH1 0x24 DUP3 ADD MSTORE PUSH22 0x13DB9B1E4818DC99585D1BDC8818D85B881CDD185C9D PUSH1 0x52 SHL PUSH1 0x44 DUP3 ADD MSTORE PUSH1 0x64 ADD PUSH2 0x1B3 JUMP JUMPDEST PUSH1 0x1 DUP2 ADD SLOAD PUSH1 0x6 EQ PUSH2 0x10E3 JUMPI PUSH1 0x40 MLOAD PUSH3 0x461BCD PUSH1 0xE5 SHL DUP2 MSTORE PUSH1 0x20 PUSH1 0x4 DUP3 ADD MSTORE PUSH1 0x16 PUSH1 0x24 DUP3 ADD MSTORE PUSH22 0x4E6565642065786163746C79203620706C6179657273 PUSH1 0x50 SHL PUSH1 0x44 DUP3 ADD MSTORE PUSH1 0x64 ADD PUSH2 0x1B3 JUMP JUMPDEST PUSH1 0x4 DUP2 ADD DUP1 SLOAD PUSH1 0xFF NOT AND PUSH1 0x1 SWAP1 DUP2 OR SWAP1 SWAP2 SSTORE PUSH1 0x7 DUP3 ADD SSTORE PUSH1 0x5 DUP2 ADD SLOAD PUSH2 0x1109 SWAP1 NUMBER PUSH2 0x1D9D JUMP JUMPDEST PUSH1 0x6 DUP3 ADD SSTORE PUSH1 0x40 MLOAD DUP3 SWAP1 PUSH32 0x50AD08F58A27F2851D7E3A1B3A6A46B290F2CE677E99642D30FF639721E77790 SWAP1 PUSH1 0x0 SWAP1 LOG2 POP POP JUMP JUMPDEST PUSH1 0x0 DUP2 DUP2 MSTORE PUSH1 0x1 PUSH1 0x20 SWAP1 DUP2 MSTORE PUSH1 0x40 DUP1 DUP4 KECCAK256 PUSH1 0x6 SWAP1 SWAP3 MSTORE SWAP1 SWAP2 KECCAK256 DUP1 SLOAD PUSH1 0xFF AND PUSH2 0x1199 JUMPI PUSH1 0x40 MLOAD PUSH3 0x461BCD PUSH1 0xE5 SHL DUP2 MSTORE PUSH1 0x20 PUSH1 0x4 DUP3 ADD MSTORE PUSH1 0xF PUSH1 0x24 DUP3 ADD MSTORE PUSH15 0x2737903832B73234B7339039B834B7 PUSH1 0x89 SHL PUSH1 0x44 DUP3 ADD MSTORE PUSH1 0x64 ADD PUSH2 0x1B3 JUMP JUMPDEST PUSH1 0x1 PUSH1 0x4 DUP4 ADD SLOAD PUSH1 0xFF AND PUSH1 0x2 DUP2 GT ISZERO PUSH2 0x11B4 JUMPI PUSH2 0x11B4 PUSH2 0x1C23 JUMP JUMPDEST EQ PUSH2 0x11F8 JUMPI PUSH1 0x40 MLOAD PUSH3 0x461BCD PUSH1 0xE5 SHL DUP2 MSTORE PUSH1 0x20 PUSH1 0x4 DUP3 ADD MSTORE PUSH1 0x14 PUSH1 0x24 DUP3 ADD MSTORE PUSH20 0x47616D65206E6F7420696E2070726F6772657373 PUSH1 0x60 SHL PUSH1 0x44 DUP3 ADD MSTORE PUSH1 0x64 ADD PUSH2 0x1B3 JUMP JUMPDEST PUSH1 0x1 DUP2 PUSH1 0x1 ADD SLOAD PUSH2 0x1209 SWAP2 SWAP1 PUSH2 0x1D9D JUMP JUMPDEST NUMBER LT ISZERO PUSH2 0x1258 JUMPI PUSH1 0x40 MLOAD PUSH3 0x461BCD PUSH1 0xE5 SHL DUP2 MSTORE PUSH1 0x20 PUSH1 0x4 DUP3 ADD MSTORE PUSH1 0x1B PUSH1 0x24 DUP3 ADD MSTORE PUSH32 0x4D757374207761697420666F722052414E44414F2072657665616C0000000000 PUSH1 0x44 DUP3 ADD MSTORE PUSH1 0x64 ADD PUSH2 0x1B3 JUMP JUMPDEST PUSH1 0x1 DUP2 ADD SLOAD PUSH2 0x1268 SWAP1 PUSH1 0xC8 PUSH2 0x1D9D JUMP JUMPDEST NUMBER GT ISZERO PUSH2 0x12C9 JUMPI PUSH1 0x40 MLOAD PUSH3 0x461BCD PUSH1 0xE5 SHL DUP2 MSTORE PUSH1 0x20 PUSH1 0x4 DUP3 ADD MSTORE PUSH1 0x29 PUSH1 0x24 DUP3 ADD MSTORE PUSH32 0x5370696E20726571756573742065787069726564202D20726571756573742061 PUSH1 0x44 DUP3 ADD MSTORE PUSH9 0x103732BB9039B834B7 PUSH1 0xB9 SHL PUSH1 0x64 DUP3 ADD MSTORE PUSH1 0x84 ADD PUSH2 0x1B3 JUMP JUMPDEST PUSH1 0x1 DUP2 ADD SLOAD PUSH1 0x40 MLOAD PUSH4 0x7E242393 PUSH1 0xE1 SHL DUP2 MSTORE PUSH1 0x0 SWAP2 PUSH1 0x1 PUSH1 0x1 PUSH1 0xA0 SHL SUB PUSH32 0x0 AND SWAP2 PUSH4 0xFC484726 SWAP2 PUSH2 0x131F SWAP2 PUSH1 0x4 ADD SWAP1 DUP2 MSTORE PUSH1 0x20 ADD SWAP1 JUMP JUMPDEST PUSH1 0x20 PUSH1 0x40 MLOAD DUP1 DUP4 SUB DUP2 DUP7 GAS STATICCALL SWAP3 POP POP POP DUP1 ISZERO PUSH2 0x1358 JUMPI POP PUSH1 0x40 DUP1 MLOAD PUSH1 0x1F RETURNDATASIZE SWAP1 DUP2 ADD PUSH1 0x1F NOT AND DUP3 ADD SWAP1 SWAP3 MSTORE PUSH2 0x1355 SWAP2 DUP2 ADD SWAP1 PUSH2 0x1DC9 JUMP JUMPDEST PUSH1 0x1 JUMPDEST ISZERO PUSH2 0x1360 JUMPI SWAP1 POP JUMPDEST DUP1 PUSH2 0x136D JUMPI POP PUSH1 0x1 DUP2 ADD SLOAD BLOCKHASH JUMPDEST DUP1 PUSH2 0x13D5 JUMPI PUSH1 0x40 MLOAD PUSH3 0x461BCD PUSH1 0xE5 SHL DUP2 MSTORE PUSH1 0x20 PUSH1 0x4 DUP3 ADD MSTORE PUSH1 0x32 PUSH1 0x24 DUP3 ADD MSTORE PUSH32 0x52616E646F6D6E65737320756E617661696C61626C65202D207265736F6C7665 PUSH1 0x44 DUP3 ADD MSTORE PUSH18 0x2077697468696E2032303020626C6F636B73 PUSH1 0x70 SHL PUSH1 0x64 DUP3 ADD MSTORE PUSH1 0x84 ADD PUSH2 0x1B3 JUMP JUMPDEST PUSH1 0x0 PUSH2 0x13E0 DUP6 PUSH2 0x17CE JUMP JUMPDEST SWAP1 POP PUSH1 0x1 DUP2 MLOAD GT PUSH2 0x142A JUMPI PUSH1 0x40 MLOAD PUSH3 0x461BCD PUSH1 0xE5 SHL DUP2 MSTORE PUSH1 0x20 PUSH1 0x4 DUP3 ADD MSTORE PUSH1 0x14 PUSH1 0x24 DUP3 ADD MSTORE PUSH20 0x13DB9B1E481BDB99481C1B185E595C881B19599D PUSH1 0x62 SHL PUSH1 0x44 DUP3 ADD MSTORE PUSH1 0x64 ADD PUSH2 0x1B3 JUMP JUMPDEST PUSH1 0x0 DUP3 DUP7 DUP6 PUSH1 0x2 ADD SLOAD DUP7 PUSH1 0x1 ADD SLOAD PUSH2 0x1441 DUP7 PUSH2 0x1B01 JUMP JUMPDEST PUSH1 0x40 DUP1 MLOAD PUSH1 0x20 DUP2 ADD SWAP7 SWAP1 SWAP7 MSTORE DUP6 ADD SWAP4 SWAP1 SWAP4 MSTORE PUSH1 0x60 DUP5 ADD SWAP2 SWAP1 SWAP2 MSTORE PUSH1 0x80 DUP4 ADD MSTORE PUSH1 0xA0 DUP3 ADD MSTORE PUSH1 0xC0 ADD PUSH1 0x40 MLOAD PUSH1 0x20 DUP2 DUP4 SUB SUB DUP2 MSTORE SWAP1 PUSH1 0x40 MSTORE DUP1 MLOAD SWAP1 PUSH1 0x20 ADD KECCAK256 SWAP1 POP PUSH1 0x0 DUP3 MLOAD DUP3 PUSH1 0x0 SHR PUSH2 0x1492 SWAP2 SWAP1 PUSH2 0x1DE2 JUMP JUMPDEST SWAP1 POP PUSH1 0x0 DUP4 DUP3 DUP2 MLOAD DUP2 LT PUSH2 0x14A8 JUMPI PUSH2 0x14A8 PUSH2 0x1E04 JUMP JUMPDEST PUSH1 0x20 SWAP1 DUP2 MUL SWAP2 SWAP1 SWAP2 ADD DUP2 ADD MLOAD PUSH1 0x0 DUP11 DUP2 MSTORE PUSH1 0x6 SWAP1 SWAP3 MSTORE PUSH1 0x40 DUP3 KECCAK256 DUP1 SLOAD PUSH1 0xFF NOT AND DUP2 SSTORE PUSH1 0x1 DUP2 ADD DUP4 SWAP1 SSTORE PUSH1 0x2 ADD SWAP2 SWAP1 SWAP2 SSTORE SWAP1 POP PUSH2 0x14E4 DUP9 DUP3 PUSH2 0x1B31 JUMP JUMPDEST PUSH1 0x7 DUP8 ADD SLOAD PUSH1 0x40 DUP1 MLOAD PUSH1 0x1 PUSH1 0x1 PUSH1 0xA0 SHL SUB DUP5 AND DUP2 MSTORE PUSH1 0x20 DUP2 ADD SWAP3 SWAP1 SWAP3 MSTORE DUP10 SWAP2 PUSH32 0x51479C93D7646904D2282E9E79CDDF11999AC774B7FD0289E2F59CB4AD0F086A SWAP2 ADD PUSH1 0x40 MLOAD DUP1 SWAP2 SUB SWAP1 LOG2 POP POP POP POP POP POP POP POP JUMP JUMPDEST PUSH1 0x0 DUP2 DUP2 MSTORE PUSH1 0x1 PUSH1 0x20 MSTORE PUSH1 0x40 DUP2 KECCAK256 SWAP1 PUSH1 0x4 DUP3 ADD SLOAD PUSH1 0xFF AND PUSH1 0x2 DUP2 GT ISZERO PUSH2 0x1560 JUMPI PUSH2 0x1560 PUSH2 0x1C23 JUMP JUMPDEST EQ PUSH2 0x15A1 JUMPI PUSH1 0x40 MLOAD PUSH3 0x461BCD PUSH1 0xE5 SHL DUP2 MSTORE PUSH1 0x20 PUSH1 0x4 DUP3 ADD MSTORE PUSH1 0x11 PUSH1 0x24 DUP3 ADD MSTORE PUSH17 0x47616D65206E6F74206A6F696E61626C65 PUSH1 0x78 SHL PUSH1 0x44 DUP3 ADD MSTORE PUSH1 0x64 ADD PUSH2 0x1B3 JUMP JUMPDEST PUSH1 0x1 DUP2 ADD SLOAD PUSH1 0x6 GT PUSH2 0x15E4 JUMPI PUSH1 0x40 MLOAD PUSH3 0x461BCD PUSH1 0xE5 SHL DUP2 MSTORE PUSH1 0x20 PUSH1 0x4 DUP3 ADD MSTORE PUSH1 0xC PUSH1 0x24 DUP3 ADD MSTORE PUSH12 0x11D85B59481A5CC8199D5B1B PUSH1 0xA2 SHL PUSH1 0x44 DUP3 ADD MSTORE PUSH1 0x64 ADD PUSH2 0x1B3 JUMP JUMPDEST PUSH2 0x15EE DUP3 CALLER PUSH2 0x1B9A JUMP JUMPDEST ISZERO PUSH2 0x162D JUMPI PUSH1 0x40 MLOAD PUSH3 0x461BCD PUSH1 0xE5 SHL DUP2 MSTORE PUSH1 0x20 PUSH1 0x4 DUP3 ADD MSTORE PUSH1 0xF PUSH1 0x24 DUP3 ADD MSTORE PUSH15 0x416C726561647920696E2067616D65 PUSH1 0x88 SHL PUSH1 0x44 DUP3 ADD MSTORE PUSH1 0x64 ADD PUSH2 0x1B3 JUMP JUMPDEST PUSH8 0xDE0B6B3A7640000 CALLVALUE EQ PUSH2 0x1684 JUMPI PUSH1 0x40 MLOAD PUSH3 0x461BCD PUSH1 0xE5 SHL DUP2 MSTORE PUSH1 0x20 PUSH1 0x4 DUP3 ADD MSTORE PUSH1 0x18 PUSH1 0x24 DUP3 ADD MSTORE PUSH32 0x4D7573742073656E642065786163746C7920312043454C4F0000000000000000 PUSH1 0x44 DUP3 ADD MSTORE PUSH1 0x64 ADD PUSH2 0x1B3 JUMP JUMPDEST PUSH8 0xDE0B6B3A7640000 DUP2 PUSH1 0x2 ADD SLOAD EQ PUSH2 0x16DF JUMPI PUSH1 0x40 MLOAD PUSH3 0x461BCD PUSH1 0xE5 SHL DUP2 MSTORE PUSH1 0x20 PUSH1 0x4 DUP3 ADD MSTORE PUSH1 0x19 PUSH1 0x24 DUP3 ADD MSTORE PUSH32 0x47616D65207374616B65206D75737420626520312043454C4F00000000000000 PUSH1 0x44 DUP3 ADD MSTORE PUSH1 0x64 ADD PUSH2 0x1B3 JUMP JUMPDEST PUSH1 0x1 DUP1 DUP3 ADD DUP1 SLOAD SWAP2 DUP3 ADD DUP2 SSTORE PUSH1 0x0 SWAP1 DUP2 MSTORE PUSH1 0x20 DUP2 KECCAK256 SWAP1 SWAP2 ADD DUP1 SLOAD PUSH1 0x1 PUSH1 0x1 PUSH1 0xA0 SHL SUB NOT AND CALLER OR SWAP1 SSTORE PUSH1 0x3 DUP3 ADD DUP1 SLOAD PUSH8 0xDE0B6B3A7640000 SWAP3 SWAP1 PUSH2 0x1723 SWAP1 DUP5 SWAP1 PUSH2 0x1D9D JUMP JUMPDEST SWAP1 SWAP2 SSTORE POP POP PUSH1 0x40 DUP1 MLOAD DUP1 DUP3 ADD DUP3 MSTORE PUSH1 0x0 DUP1 DUP3 MSTORE PUSH1 0x20 DUP1 DUP4 ADD DUP3 DUP2 MSTORE DUP7 DUP4 MSTORE PUSH1 0x2 DUP3 MSTORE DUP5 DUP4 KECCAK256 CALLER DUP1 DUP6 MSTORE SWAP1 DUP4 MSTORE DUP6 DUP5 KECCAK256 SWAP5 MLOAD DUP6 SLOAD PUSH1 0xFF NOT AND SWAP1 ISZERO ISZERO OR DUP6 SSTORE SWAP1 MLOAD PUSH1 0x1 SWAP1 SWAP5 ADD SWAP4 SWAP1 SWAP4 SSTORE DUP6 DUP3 MSTORE PUSH1 0x3 DUP2 MSTORE DUP4 DUP3 KECCAK256 DUP4 DUP4 MSTORE SWAP1 MSTORE SWAP2 SWAP1 SWAP2 KECCAK256 PUSH8 0xDE0B6B3A7640000 SWAP1 DUP2 SWAP1 SSTORE PUSH2 0x1795 SWAP2 SWAP1 PUSH2 0x1978 JUMP JUMPDEST PUSH1 0x40 MLOAD CALLER DUP2 MSTORE DUP3 SWAP1 PUSH32 0x87969BC7FAF902221A147B95CEBA76E011C5EFB0339A0A8EE7A2BB82D9CFBBD6 SWAP1 PUSH1 0x20 ADD PUSH1 0x40 MLOAD DUP1 SWAP2 SUB SWAP1 LOG2 POP POP JUMP JUMPDEST PUSH1 0x0 DUP2 DUP2 MSTORE PUSH1 0x1 PUSH1 0x20 DUP2 SWAP1 MSTORE PUSH1 0x40 DUP3 KECCAK256 PUSH1 0x60 SWAP3 SWAP2 ADD SWAP1 DUP1 JUMPDEST DUP3 SLOAD DUP2 LT ISZERO PUSH2 0x1858 JUMPI PUSH1 0x2 PUSH1 0x0 DUP7 DUP2 MSTORE PUSH1 0x20 ADD SWAP1 DUP2 MSTORE PUSH1 0x20 ADD PUSH1 0x0 KECCAK256 PUSH1 0x0 DUP5 DUP4 DUP2 SLOAD DUP2 LT PUSH2 0x1816 JUMPI PUSH2 0x1816 PUSH2 0x1E04 JUMP JUMPDEST PUSH1 0x0 SWAP2 DUP3 MSTORE PUSH1 0x20 DUP1 DUP4 KECCAK256 SWAP1 SWAP2 ADD SLOAD PUSH1 0x1 PUSH1 0x1 PUSH1 0xA0 SHL SUB AND DUP4 MSTORE DUP3 ADD SWAP3 SWAP1 SWAP3 MSTORE PUSH1 0x40 ADD SWAP1 KECCAK256 SLOAD PUSH1 0xFF AND PUSH2 0x1850 JUMPI DUP2 PUSH2 0x184C DUP2 PUSH2 0x1DB0 JUMP JUMPDEST SWAP3 POP POP JUMPDEST PUSH1 0x1 ADD PUSH2 0x17E6 JUMP JUMPDEST POP PUSH1 0x0 DUP2 PUSH8 0xFFFFFFFFFFFFFFFF DUP2 GT ISZERO PUSH2 0x1874 JUMPI PUSH2 0x1874 PUSH2 0x1E1A JUMP JUMPDEST PUSH1 0x40 MLOAD SWAP1 DUP1 DUP3 MSTORE DUP1 PUSH1 0x20 MUL PUSH1 0x20 ADD DUP3 ADD PUSH1 0x40 MSTORE DUP1 ISZERO PUSH2 0x189D JUMPI DUP2 PUSH1 0x20 ADD PUSH1 0x20 DUP3 MUL DUP1 CALLDATASIZE DUP4 CALLDATACOPY ADD SWAP1 POP JUMPDEST POP SWAP1 POP PUSH1 0x0 DUP1 JUMPDEST DUP5 SLOAD DUP2 LT ISZERO PUSH2 0x196D JUMPI PUSH1 0x2 PUSH1 0x0 DUP9 DUP2 MSTORE PUSH1 0x20 ADD SWAP1 DUP2 MSTORE PUSH1 0x20 ADD PUSH1 0x0 KECCAK256 PUSH1 0x0 DUP7 DUP4 DUP2 SLOAD DUP2 LT PUSH2 0x18D4 JUMPI PUSH2 0x18D4 PUSH2 0x1E04 JUMP JUMPDEST PUSH1 0x0 SWAP2 DUP3 MSTORE PUSH1 0x20 DUP1 DUP4 KECCAK256 SWAP1 SWAP2 ADD SLOAD PUSH1 0x1 PUSH1 0x1 PUSH1 0xA0 SHL SUB AND DUP4 MSTORE DUP3 ADD SWAP3 SWAP1 SWAP3 MSTORE PUSH1 0x40 ADD SWAP1 KECCAK256 SLOAD PUSH1 0xFF AND PUSH2 0x1965 JUMPI DUP5 DUP2 DUP2 SLOAD DUP2 LT PUSH2 0x1912 JUMPI PUSH2 0x1912 PUSH2 0x1E04 JUMP JUMPDEST PUSH1 0x0 SWAP2 DUP3 MSTORE PUSH1 0x20 SWAP1 SWAP2 KECCAK256 ADD SLOAD PUSH1 0x1 PUSH1 0x1 PUSH1 0xA0 SHL SUB AND DUP4 DUP4 PUSH2 0x1932 DUP2 PUSH2 0x1DB0 JUMP JUMPDEST SWAP5 POP DUP2 MLOAD DUP2 LT PUSH2 0x1944 JUMPI PUSH2 0x1944 PUSH2 0x1E04 JUMP JUMPDEST PUSH1 0x20 MUL PUSH1 0x20 ADD ADD SWAP1 PUSH1 0x1 PUSH1 0x1 PUSH1 0xA0 SHL SUB AND SWAP1 DUP2 PUSH1 0x1 PUSH1 0x1 PUSH1 0xA0 SHL SUB AND DUP2 MSTORE POP POP JUMPDEST PUSH1 0x1 ADD PUSH2 0x18A4 JUMP JUMPDEST POP SWAP1 SWAP6 SWAP5 POP POP POP POP POP JUMP JUMPDEST PUSH1 0x1 PUSH1 0x1 PUSH1 0xA0 SHL SUB DUP3 AND PUSH1 0x0 SWAP1 DUP2 MSTORE PUSH1 0x5 PUSH1 0x20 MSTORE PUSH1 0x40 DUP2 KECCAK256 DUP1 SLOAD SWAP1 SWAP2 DUP3 SWAP1 PUSH2 0x199F DUP4 PUSH2 0x1DB0 JUMP JUMPDEST SWAP2 SWAP1 POP SSTORE POP DUP2 DUP2 PUSH1 0x3 ADD PUSH1 0x0 DUP3 DUP3 SLOAD PUSH2 0x19B8 SWAP2 SWAP1 PUSH2 0x1D9D JUMP JUMPDEST SWAP1 SWAP2 SSTORE POP POP POP POP POP JUMP JUMPDEST PUSH1 0x0 DUP2 DUP2 MSTORE PUSH1 0x1 PUSH1 0x20 MSTORE PUSH1 0x40 DUP2 KECCAK256 SWAP1 PUSH2 0x19DA DUP4 PUSH2 0x17CE JUMP JUMPDEST SWAP1 POP DUP1 MLOAD PUSH1 0x1 EQ PUSH2 0x1A37 JUMPI PUSH1 0x40 MLOAD PUSH3 0x461BCD PUSH1 0xE5 SHL DUP2 MSTORE PUSH1 0x20 PUSH1 0x4 DUP3 ADD MSTORE PUSH1 0x21 PUSH1 0x24 DUP3 ADD MSTORE PUSH32 0x43616E6E6F7420636F6D706C6574653A206E6F20756E697175652077696E6E65 PUSH1 0x44 DUP3 ADD MSTORE PUSH1 0x39 PUSH1 0xF9 SHL PUSH1 0x64 DUP3 ADD MSTORE PUSH1 0x84 ADD PUSH2 0x1B3 JUMP JUMPDEST PUSH1 0x4 DUP3 ADD DUP1 SLOAD PUSH1 0xFF NOT AND PUSH1 0x2 OR SWAP1 SSTORE DUP1 MLOAD DUP2 SWAP1 PUSH1 0x0 SWAP1 PUSH2 0x1A59 JUMPI PUSH2 0x1A59 PUSH2 0x1E04 JUMP JUMPDEST PUSH1 0x20 SWAP1 DUP2 MUL SWAP2 SWAP1 SWAP2 ADD DUP2 ADD MLOAD PUSH1 0x8 DUP5 ADD DUP1 SLOAD PUSH1 0x1 PUSH1 0x1 PUSH1 0xA0 SHL SUB NOT AND PUSH1 0x1 PUSH1 0x1 PUSH1 0xA0 SHL SUB SWAP1 SWAP3 AND SWAP2 DUP3 OR SWAP1 SSTORE PUSH1 0x7 DUP5 ADD SLOAD PUSH1 0x9 DUP6 ADD SSTORE PUSH1 0x40 MLOAD SWAP1 DUP2 MSTORE DUP5 SWAP2 PUSH32 0x7F40DF5127524300187445E867486DA572AAB86769C0212E0B392BD87C4CA97F SWAP2 ADD PUSH2 0xFD1 JUMP JUMPDEST PUSH1 0x1 PUSH1 0x1 PUSH1 0xA0 SHL SUB DUP3 AND PUSH1 0x0 SWAP1 DUP2 MSTORE PUSH1 0x5 PUSH1 0x20 MSTORE PUSH1 0x40 DUP2 KECCAK256 PUSH1 0x1 DUP2 ADD DUP1 SLOAD SWAP2 SWAP3 PUSH2 0x1AE8 DUP4 PUSH2 0x1DB0 JUMP JUMPDEST SWAP2 SWAP1 POP SSTORE POP DUP2 DUP2 PUSH1 0x2 ADD PUSH1 0x0 DUP3 DUP3 SLOAD PUSH2 0x19B8 SWAP2 SWAP1 PUSH2 0x1D9D JUMP JUMPDEST PUSH1 0x0 DUP2 PUSH1 0x40 MLOAD PUSH1 0x20 ADD PUSH2 0x1B14 SWAP2 SWAP1 PUSH2 0x1E30 JUMP JUMPDEST PUSH1 0x40 MLOAD PUSH1 0x20 DUP2 DUP4 SUB SUB DUP2 MSTORE SWAP1 PUSH1 0x40 MSTORE DUP1 MLOAD SWAP1 PUSH1 0x20 ADD KECCAK256 SWAP1 POP SWAP2 SWAP1 POP JUMP JUMPDEST PUSH1 0x0 DUP3 DUP2 MSTORE PUSH1 0x2 PUSH1 0x20 SWAP1 DUP2 MSTORE PUSH1 0x40 DUP1 DUP4 KECCAK256 PUSH1 0x1 PUSH1 0x1 PUSH1 0xA0 SHL SUB DUP6 AND DUP1 DUP6 MSTORE DUP2 DUP5 MSTORE DUP3 DUP6 KECCAK256 DUP1 SLOAD PUSH1 0xFF NOT AND PUSH1 0x1 SWAP1 DUP2 OR DUP3 SSTORE DUP9 DUP8 MSTORE DUP1 DUP7 MSTORE SWAP4 DUP7 KECCAK256 PUSH1 0x7 ADD SLOAD SWAP2 DUP7 MSTORE SWAP2 SWAP1 SWAP4 MSTORE ADD SSTORE PUSH2 0x1B81 DUP4 PUSH2 0x17CE JUMP JUMPDEST SWAP1 POP DUP1 MLOAD PUSH1 0x1 SUB PUSH2 0x1B95 JUMPI PUSH2 0x1B95 DUP4 PUSH2 0x19C2 JUMP JUMPDEST POP POP POP JUMP JUMPDEST PUSH1 0x0 DUP3 DUP2 MSTORE PUSH1 0x1 PUSH1 0x20 DUP2 SWAP1 MSTORE PUSH1 0x40 DUP3 KECCAK256 ADD DUP2 JUMPDEST DUP2 SLOAD DUP2 LT ISZERO PUSH2 0x1BFF JUMPI DUP4 PUSH1 0x1 PUSH1 0x1 PUSH1 0xA0 SHL SUB AND DUP3 DUP3 DUP2 SLOAD DUP2 LT PUSH2 0x1BD2 JUMPI PUSH2 0x1BD2 PUSH2 0x1E04 JUMP JUMPDEST PUSH1 0x0 SWAP2 DUP3 MSTORE PUSH1 0x20 SWAP1 SWAP2 KECCAK256 ADD SLOAD PUSH1 0x1 PUSH1 0x1 PUSH1 0xA0 SHL SUB AND SUB PUSH2 0x1BF7 JUMPI PUSH1 0x1 SWAP3 POP POP POP PUSH2 0x8E9 JUMP JUMPDEST PUSH1 0x1 ADD PUSH2 0x1BAD JUMP JUMPDEST POP PUSH1 0x0 SWAP5 SWAP4 POP POP POP POP JUMP JUMPDEST PUSH1 0x0 PUSH1 0x20 DUP3 DUP5 SUB SLT ISZERO PUSH2 0x1C1C JUMPI PUSH1 0x0 DUP1 REVERT JUMPDEST POP CALLDATALOAD SWAP2 SWAP1 POP JUMP JUMPDEST PUSH4 0x4E487B71 PUSH1 0xE0 SHL PUSH1 0x0 MSTORE PUSH1 0x21 PUSH1 0x4 MSTORE PUSH1 0x24 PUSH1 0x0 REVERT JUMPDEST PUSH1 0x1 PUSH1 0x1 PUSH1 0xA0 SHL SUB DUP11 DUP2 AND DUP3 MSTORE PUSH1 0x20 DUP3 ADD DUP11 SWAP1 MSTORE PUSH1 0x40 DUP3 ADD DUP10 SWAP1 MSTORE PUSH2 0x120 DUP3 ADD SWAP1 PUSH1 0x3 DUP10 LT PUSH2 0x1C78 JUMPI PUSH4 0x4E487B71 PUSH1 0xE0 SHL PUSH1 0x0 MSTORE PUSH1 0x21 PUSH1 0x4 MSTORE PUSH1 0x24 PUSH1 0x0 REVERT JUMPDEST DUP9 PUSH1 0x60 DUP5 ADD MSTORE DUP8 PUSH1 0x80 DUP5 ADD MSTORE DUP7 PUSH1 0xA0 DUP5 ADD MSTORE DUP6 PUSH1 0xC0 DUP5 ADD MSTORE DUP1 DUP6 AND PUSH1 0xE0 DUP5 ADD MSTORE POP DUP3 PUSH2 0x100 DUP4 ADD MSTORE SWAP11 SWAP10 POP POP POP POP POP POP POP POP POP POP JUMP JUMPDEST DUP1 CALLDATALOAD PUSH1 0x1 PUSH1 0x1 PUSH1 0xA0 SHL SUB DUP2 AND DUP2 EQ PUSH2 0x1CC5 JUMPI PUSH1 0x0 DUP1 REVERT JUMPDEST SWAP2 SWAP1 POP JUMP JUMPDEST PUSH1 0x0 DUP1 PUSH1 0x40 DUP4 DUP6 SUB SLT ISZERO PUSH2 0x1CDD JUMPI PUSH1 0x0 DUP1 REVERT JUMPDEST DUP3 CALLDATALOAD SWAP2 POP PUSH2 0x1CED PUSH1 0x20 DUP5 ADD PUSH2 0x1CAE JUMP JUMPDEST SWAP1 POP SWAP3 POP SWAP3 SWAP1 POP JUMP JUMPDEST PUSH1 0x20 DUP1 DUP3 MSTORE DUP3 MLOAD DUP3 DUP3 ADD DUP2 SWAP1 MSTORE PUSH1 0x0 SWAP2 SWAP1 DUP5 DUP3 ADD SWAP1 PUSH1 0x40 DUP6 ADD SWAP1 DUP5 JUMPDEST DUP2 DUP2 LT ISZERO PUSH2 0x1D37 JUMPI DUP4 MLOAD PUSH1 0x1 PUSH1 0x1 PUSH1 0xA0 SHL SUB AND DUP4 MSTORE SWAP3 DUP5 ADD SWAP3 SWAP2 DUP5 ADD SWAP2 PUSH1 0x1 ADD PUSH2 0x1D12 JUMP JUMPDEST POP SWAP1 SWAP7 SWAP6 POP POP POP POP POP POP JUMP JUMPDEST PUSH1 0x0 DUP1 PUSH1 0x40 DUP4 DUP6 SUB SLT ISZERO PUSH2 0x1D56 JUMPI PUSH1 0x0 DUP1 REVERT JUMPDEST POP POP DUP1 CALLDATALOAD SWAP3 PUSH1 0x20 SWAP1 SWAP2 ADD CALLDATALOAD SWAP2 POP JUMP JUMPDEST PUSH1 0x0 PUSH1 0x20 DUP3 DUP5 SUB SLT ISZERO PUSH2 0x1D77 JUMPI PUSH1 0x0 DUP1 REVERT JUMPDEST PUSH2 0x1D80 DUP3 PUSH2 0x1CAE JUMP JUMPDEST SWAP4 SWAP3 POP POP POP JUMP JUMPDEST PUSH4 0x4E487B71 PUSH1 0xE0 SHL PUSH1 0x0 MSTORE PUSH1 0x11 PUSH1 0x4 MSTORE PUSH1 0x24 PUSH1 0x0 REVERT JUMPDEST DUP1 DUP3 ADD DUP1 DUP3 GT ISZERO PUSH2 0x8E9 JUMPI PUSH2 0x8E9 PUSH2 0x1D87 JUMP JUMPDEST PUSH1 0x0 PUSH1 0x1 DUP3 ADD PUSH2 0x1DC2 JUMPI PUSH2 0x1DC2 PUSH2 0x1D87 JUMP JUMPDEST POP PUSH1 0x1 ADD SWAP1 JUMP JUMPDEST PUSH1 0x0 PUSH1 0x20 DUP3 DUP5 SUB SLT ISZERO PUSH2 0x1DDB JUMPI PUSH1 0x0 DUP1 REVERT JUMPDEST POP MLOAD SWAP2 SWAP1 POP JUMP JUMPDEST PUSH1 0x0 DUP3 PUSH2 0x1DFF JUMPI PUSH4 0x4E487B71 PUSH1 0xE0 SHL PUSH1 0x0 MSTORE PUSH1 0x12 PUSH1 0x4 MSTORE PUSH1 0x24 PUSH1 0x0 REVERT JUMPDEST POP MOD SWAP1 JUMP JUMPDEST PUSH4 0x4E487B71 PUSH1 0xE0 SHL PUSH1 0x0 MSTORE PUSH1 0x32 PUSH1 0x4 MSTORE PUSH1 0x24 PUSH1 0x0 REVERT JUMPDEST PUSH4 0x4E487B71 PUSH1 0xE0 SHL PUSH1 0x0 MSTORE PUSH1 0x41 PUSH1 0x4 MSTORE PUSH1 0x24 PUSH1 0x0 REVERT JUMPDEST DUP2 MLOAD PUSH1 0x0 SWAP1 DUP3 SWAP1 PUSH1 0x20 DUP1 DUP7 ADD DUP5 JUMPDEST DUP4 DUP2 LT ISZERO PUSH2 0x1E63 JUMPI DUP2 MLOAD PUSH1 0x1 PUSH1 0x1 PUSH1 0xA0 SHL SUB AND DUP6 MSTORE SWAP4 DUP3 ADD SWAP4 SWAP1 DUP3 ADD SWAP1 PUSH1 0x1 ADD PUSH2 0x1E3E JUMP JUMPDEST POP SWAP3 SWAP7 SWAP6 POP POP POP POP POP POP JUMP INVALID LOG2 PUSH5 0x6970667358 0x22 SLT KECCAK256 CREATE AND 0xFB 0xDA 0xE SWAP5 0x2A 0xD9 0xF9 SAR SWAP5 GASLIMIT PUSH28 0x7312CE585CFA7861EABE5A2563F013788F824A64736F6C6343000818 STOP CALLER "},"methodIdentifiers":{"MAX_PLAYERS()":"4411b3eb","MAX_ROUND_DURATION()":"0aaa4548","MAX_STAKE()":"c98517c5","MIN_HOST_BALANCE()":"2d34a8dd","MIN_ROUND_DURATION()":"ab5669ad","MIN_STAKE()":"cb1c2b5c","REVEAL_DELAY()":"a7bc4e30","advanceRound(uint256)":"c781bd7a","celoRandomAddress()":"952e88d1","claimPrize(uint256)":"d7098154","createGame(uint256,uint256)":"60104cef","gameCounter()":"2e0be39a","games(uint256)":"117a5b90","getActivePlayers(uint256)":"342ed956","getPendingSpin(uint256)":"b8da0c5b","joinGame(uint256)":"efaa55a0","pendingSpins(uint256)":"4cbe6423","playerDeposits(uint256,address)":"1556bda1","playerGameData(uint256,address)":"6c617d98","prizeClaimed(uint256)":"dfab983c","randomContract()":"ccf69e9b","requestSpin(uint256)":"28a0b80f","resolveSpin(uint256)":"eca0d6ae","startGame(uint256)":"e5ed1d59","userStats(address)":"8a65d874"}}}}}