{
  "_format": "hh-sol-artifact-1",
  "contractName": "BreevsRussianRoulette",
  "sourceName": "src/contracts/Breevs.sol",
  "abi": [
    {
      "inputs": [
        {
          "internalType": "address",
          "name": "_randomContractAddress",
          "type": "address"
        }
      ],
      "stateMutability": "nonpayable",
      "type": "constructor"
    },
    {
      "anonymous": false,
      "inputs": [
        {
          "indexed": true,
          "internalType": "uint256",
          "name": "gameId",
          "type": "uint256"
        },
        {
          "indexed": false,
          "internalType": "address",
          "name": "winner",
          "type": "address"
        }
      ],
      "name": "GameCompleted",
      "type": "event"
    },
    {
      "anonymous": false,
      "inputs": [
        {
          "indexed": true,
          "internalType": "uint256",
          "name": "gameId",
          "type": "uint256"
        }
      ],
      "name": "GameCreated",
      "type": "event"
    },
    {
      "anonymous": false,
      "inputs": [
        {
          "indexed": true,
          "internalType": "uint256",
          "name": "gameId",
          "type": "uint256"
        }
      ],
      "name": "GameStarted",
      "type": "event"
    },
    {
      "anonymous": false,
      "inputs": [
        {
          "indexed": true,
          "internalType": "uint256",
          "name": "gameId",
          "type": "uint256"
        },
        {
          "indexed": false,
          "internalType": "address",
          "name": "player",
          "type": "address"
        },
        {
          "indexed": false,
          "internalType": "uint256",
          "name": "round",
          "type": "uint256"
        }
      ],
      "name": "PlayerEliminated",
      "type": "event"
    },
    {
      "anonymous": false,
      "inputs": [
        {
          "indexed": true,
          "internalType": "uint256",
          "name": "gameId",
          "type": "uint256"
        },
        {
          "indexed": false,
          "internalType": "address",
          "name": "player",
          "type": "address"
        }
      ],
      "name": "PlayerJoined",
      "type": "event"
    },
    {
      "anonymous": false,
      "inputs": [
        {
          "indexed": true,
          "internalType": "uint256",
          "name": "gameId",
          "type": "uint256"
        },
        {
          "indexed": false,
          "internalType": "address",
          "name": "winner",
          "type": "address"
        },
        {
          "indexed": false,
          "internalType": "uint256",
          "name": "amount",
          "type": "uint256"
        }
      ],
      "name": "PrizeClaimed",
      "type": "event"
    },
    {
      "anonymous": false,
      "inputs": [
        {
          "indexed": true,
          "internalType": "uint256",
          "name": "gameId",
          "type": "uint256"
        },
        {
          "indexed": false,
          "internalType": "uint256",
          "name": "commitBlock",
          "type": "uint256"
        },
        {
          "indexed": false,
          "internalType": "uint256",
          "name": "round",
          "type": "uint256"
        }
      ],
      "name": "SpinRequested",
      "type": "event"
    },
    {
      "inputs": [],
      "name": "MAX_PLAYERS",
      "outputs": [
        {
          "internalType": "uint256",
          "name": "",
          "type": "uint256"
        }
      ],
      "stateMutability": "view",
      "type": "function"
    },
    {
      "inputs": [],
      "name": "MAX_ROUND_DURATION",
      "outputs": [
        {
          "internalType": "uint256",
          "name": "",
          "type": "uint256"
        }
      ],
      "stateMutability": "view",
      "type": "function"
    },
    {
      "inputs": [],
      "name": "MAX_STAKE",
      "outputs": [
        {
          "internalType": "uint256",
          "name": "",
          "type": "uint256"
        }
      ],
      "stateMutability": "view",
      "type": "function"
    },
    {
      "inputs": [],
      "name": "MIN_HOST_BALANCE",
      "outputs": [
        {
          "internalType": "uint256",
          "name": "",
          "type": "uint256"
        }
      ],
      "stateMutability": "view",
      "type": "function"
    },
    {
      "inputs": [],
      "name": "MIN_ROUND_DURATION",
      "outputs": [
        {
          "internalType": "uint256",
          "name": "",
          "type": "uint256"
        }
      ],
      "stateMutability": "view",
      "type": "function"
    },
    {
      "inputs": [],
      "name": "MIN_STAKE",
      "outputs": [
        {
          "internalType": "uint256",
          "name": "",
          "type": "uint256"
        }
      ],
      "stateMutability": "view",
      "type": "function"
    },
    {
      "inputs": [],
      "name": "REVEAL_DELAY",
      "outputs": [
        {
          "internalType": "uint256",
          "name": "",
          "type": "uint256"
        }
      ],
      "stateMutability": "view",
      "type": "function"
    },
    {
      "inputs": [
        {
          "internalType": "uint256",
          "name": "gameId",
          "type": "uint256"
        }
      ],
      "name": "advanceRound",
      "outputs": [],
      "stateMutability": "nonpayable",
      "type": "function"
    },
    {
      "inputs": [],
      "name": "celoRandomAddress",
      "outputs": [
        {
          "internalType": "address",
          "name": "",
          "type": "address"
        }
      ],
      "stateMutability": "view",
      "type": "function"
    },
    {
      "inputs": [
        {
          "internalType": "uint256",
          "name": "gameId",
          "type": "uint256"
        }
      ],
      "name": "claimPrize",
      "outputs": [],
      "stateMutability": "nonpayable",
      "type": "function"
    },
    {
      "inputs": [
        {
          "internalType": "uint256",
          "name": "stake",
          "type": "uint256"
        },
        {
          "internalType": "uint256",
          "name": "roundDuration",
          "type": "uint256"
        }
      ],
      "name": "createGame",
      "outputs": [
        {
          "internalType": "uint256",
          "name": "",
          "type": "uint256"
        }
      ],
      "stateMutability": "payable",
      "type": "function"
    },
    {
      "inputs": [],
      "name": "gameCounter",
      "outputs": [
        {
          "internalType": "uint256",
          "name": "",
          "type": "uint256"
        }
      ],
      "stateMutability": "view",
      "type": "function"
    },
    {
      "inputs": [
        {
          "internalType": "uint256",
          "name": "",
          "type": "uint256"
        }
      ],
      "name": "games",
      "outputs": [
        {
          "internalType": "address",
          "name": "creator",
          "type": "address"
        },
        {
          "internalType": "uint256",
          "name": "stake",
          "type": "uint256"
        },
        {
          "internalType": "uint256",
          "name": "prizePool",
          "type": "uint256"
        },
        {
          "internalType": "enum BreevsRussianRoulette.Status",
          "name": "status",
          "type": "uint8"
        },
        {
          "internalType": "uint256",
          "name": "roundDuration",
          "type": "uint256"
        },
        {
          "internalType": "uint256",
          "name": "roundEnd",
          "type": "uint256"
        },
        {
          "internalType": "uint256",
          "name": "currentRound",
          "type": "uint256"
        },
        {
          "internalType": "address",
          "name": "winner",
          "type": "address"
        },
        {
          "internalType": "uint256",
          "name": "totalRounds",
          "type": "uint256"
        }
      ],
      "stateMutability": "view",
      "type": "function"
    },
    {
      "inputs": [
        {
          "internalType": "uint256",
          "name": "gameId",
          "type": "uint256"
        }
      ],
      "name": "getActivePlayers",
      "outputs": [
        {
          "internalType": "address[]",
          "name": "",
          "type": "address[]"
        }
      ],
      "stateMutability": "view",
      "type": "function"
    },
    {
      "inputs": [
        {
          "internalType": "uint256",
          "name": "gameId",
          "type": "uint256"
        }
      ],
      "name": "getPendingSpin",
      "outputs": [
        {
          "components": [
            {
              "internalType": "bool",
              "name": "pending",
              "type": "bool"
            },
            {
              "internalType": "uint256",
              "name": "commitBlock",
              "type": "uint256"
            },
            {
              "internalType": "uint256",
              "name": "round",
              "type": "uint256"
            }
          ],
          "internalType": "struct BreevsRussianRoulette.SpinRequest",
          "name": "",
          "type": "tuple"
        }
      ],
      "stateMutability": "view",
      "type": "function"
    },
    {
      "inputs": [
        {
          "internalType": "uint256",
          "name": "gameId",
          "type": "uint256"
        }
      ],
      "name": "joinGame",
      "outputs": [],
      "stateMutability": "payable",
      "type": "function"
    },
    {
      "inputs": [
        {
          "internalType": "uint256",
          "name": "",
          "type": "uint256"
        }
      ],
      "name": "pendingSpins",
      "outputs": [
        {
          "internalType": "bool",
          "name": "pending",
          "type": "bool"
        },
        {
          "internalType": "uint256",
          "name": "commitBlock",
          "type": "uint256"
        },
        {
          "internalType": "uint256",
          "name": "round",
          "type": "uint256"
        }
      ],
      "stateMutability": "view",
      "type": "function"
    },
    {
      "inputs": [
        {
          "internalType": "uint256",
          "name": "",
          "type": "uint256"
        },
        {
          "internalType": "address",
          "name": "",
          "type": "address"
        }
      ],
      "name": "playerDeposits",
      "outputs": [
        {
          "internalType": "uint256",
          "name": "",
          "type": "uint256"
        }
      ],
      "stateMutability": "view",
      "type": "function"
    },
    {
      "inputs": [
        {
          "internalType": "uint256",
          "name": "",
          "type": "uint256"
        },
        {
          "internalType": "address",
          "name": "",
          "type": "address"
        }
      ],
      "name": "playerGameData",
      "outputs": [
        {
          "internalType": "bool",
          "name": "eliminated",
          "type": "bool"
        },
        {
          "internalType": "uint256",
          "name": "eliminationRound",
          "type": "uint256"
        }
      ],
      "stateMutability": "view",
      "type": "function"
    },
    {
      "inputs": [
        {
          "internalType": "uint256",
          "name": "",
          "type": "uint256"
        }
      ],
      "name": "prizeClaimed",
      "outputs": [
        {
          "internalType": "bool",
          "name": "",
          "type": "bool"
        }
      ],
      "stateMutability": "view",
      "type": "function"
    },
    {
      "inputs": [],
      "name": "randomContract",
      "outputs": [
        {
          "internalType": "contract IRandom",
          "name": "",
          "type": "address"
        }
      ],
      "stateMutability": "view",
      "type": "function"
    },
    {
      "inputs": [
        {
          "internalType": "uint256",
          "name": "gameId",
          "type": "uint256"
        }
      ],
      "name": "requestSpin",
      "outputs": [],
      "stateMutability": "nonpayable",
      "type": "function"
    },
    {
      "inputs": [
        {
          "internalType": "uint256",
          "name": "gameId",
          "type": "uint256"
        }
      ],
      "name": "resolveSpin",
      "outputs": [],
      "stateMutability": "nonpayable",
      "type": "function"
    },
    {
      "inputs": [
        {
          "internalType": "uint256",
          "name": "gameId",
          "type": "uint256"
        }
      ],
      "name": "startGame",
      "outputs": [],
      "stateMutability": "nonpayable",
      "type": "function"
    },
    {
      "inputs": [
        {
          "internalType": "address",
          "name": "",
          "type": "address"
        }
      ],
      "name": "userStats",
      "outputs": [
        {
          "internalType": "uint256",
          "name": "gamesPlayed",
          "type": "uint256"
        },
        {
          "internalType": "uint256",
          "name": "gamesWon",
          "type": "uint256"
        },
        {
          "internalType": "uint256",
          "name": "totalWinnings",
          "type": "uint256"
        },
        {
          "internalType": "uint256",
          "name": "totalStaked",
          "type": "uint256"
        }
      ],
      "stateMutability": "view",
      "type": "function"
    },
    {
      "stateMutability": "payable",
      "type": "receive"
    }
  ],
  "bytecode": "0x60a06040523480156200001157600080fd5b506040516200207138038062002071833981016040819052620000349162000170565b6001600160a01b0381166200015b576040516552616e646f6d60d01b602082015260009061ce109063dd92723390602601604051602081830303815290604052805190602001206040518263ffffffff1660e01b81526004016200009a91815260200190565b602060405180830381865afa158015620000b8573d6000803e3d6000fd5b505050506040513d601f19601f82011682018060405250810190620000de919062000170565b90506001600160a01b038116620001495760405162461bcd60e51b815260206004820152602560248201527f52616e646f6d20636f6e7472616374206e6f7420666f756e6420696e20726567604482015264697374727960d81b606482015260840160405180910390fd5b6001600160a01b031660805262000169565b6001600160a01b0381166080525b50620001a2565b6000602082840312156200018357600080fd5b81516001600160a01b03811681146200019b57600080fd5b9392505050565b608051611ea5620001cc600039600081816104810152818161057501526112e80152611ea56000f3fe60806040526004361061016a5760003560e01c8063952e88d1116100d1578063cb1c2b5c1161008a578063dfab983c11610064578063dfab983c146105b7578063e5ed1d59146105f7578063eca0d6ae14610617578063efaa55a01461063757600080fd5b8063cb1c2b5c14610547578063ccf69e9b14610563578063d70981541461059757600080fd5b8063952e88d114610472578063a7bc4e30146104b9578063ab5669ad146104ce578063b8da0c5b146104e3578063c781bd7a14610527578063c98517c51461054757600080fd5b8063342ed95611610123578063342ed956146103025780634411b3eb1461032f5780634cbe64231461034457806360104cef146103a15780636c617d98146103b45780638a65d8741461041057600080fd5b80630aaa4548146101c1578063117a5b90146101ea5780631556bda11461027657806328a0b80f146102ae5780632d34a8dd146102d05780632e0be39a146102ec57600080fd5b366101bc5760405162461bcd60e51b815260206004820152601a60248201527f557365206a6f696e47616d65206f722063726561746547616d6500000000000060448201526064015b60405180910390fd5b600080fd5b3480156101cd57600080fd5b506101d76103e881565b6040519081526020015b60405180910390f35b3480156101f657600080fd5b50610261610205366004611c0a565b6001602052600090815260409020805460028201546003830154600484015460058501546006860154600787015460088801546009909801546001600160a01b03978816989697959660ff909516959394929391929091169089565b6040516101e199989796959493929190611c39565b34801561028257600080fd5b506101d7610291366004611cca565b600360209081526000928352604080842090915290825290205481565b3480156102ba57600080fd5b506102ce6102c9366004611c0a565b61064a565b005b3480156102dc57600080fd5b506101d7674563918244f4000081565b3480156102f857600080fd5b506101d760005481565b34801561030e57600080fd5b5061032261031d366004611c0a565b6108de565b6040516101e19190611cf6565b34801561033b57600080fd5b506101d7600681565b34801561035057600080fd5b5061038461035f366004611c0a565b60066020526000908152604090208054600182015460029092015460ff909116919083565b6040805193151584526020840192909252908201526060016101e1565b6101d76103af366004611d43565b6108ef565b3480156103c057600080fd5b506103f96103cf366004611cca565b60026020908152600092835260408084209091529082529020805460019091015460ff9091169082565b6040805192151583526020830191909152016101e1565b34801561041c57600080fd5b5061045261042b366004611d65565b60056020526000908152604090208054600182015460028301546003909301549192909184565b6040805194855260208501939093529183015260608201526080016101e1565b34801561047e57600080fd5b507f00000000000000000000000000000000000000000000000000000000000000005b6040516001600160a01b0390911681526020016101e1565b3480156104c557600080fd5b506101d7600181565b3480156104da57600080fd5b506101d7600a81565b3480156104ef57600080fd5b506105036104fe366004611c0a565b610b68565b604080518251151581526020808401519082015291810151908201526060016101e1565b34801561053357600080fd5b506102ce610542366004611c0a565b610bcc565b34801561055357600080fd5b506101d7670de0b6b3a764000081565b34801561056f57600080fd5b506104a17f000000000000000000000000000000000000000000000000000000000000000081565b3480156105a357600080fd5b506102ce6105b2366004611c0a565b610d88565b3480156105c357600080fd5b506105e76105d2366004611c0a565b60046020526000908152604090205460ff1681565b60405190151581526020016101e1565b34801561060357600080fd5b506102ce610612366004611c0a565b610fde565b34801561062357600080fd5b506102ce610632366004611c0a565b61113d565b6102ce610645366004611c0a565b611538565b600081815260016020526040902080546001600160a01b031633146106a65760405162461bcd60e51b815260206004820152601260248201527127b7363c903437b9ba1031b0b71039b834b760711b60448201526064016101b3565b6001600482015460ff1660028111156106c1576106c1611c23565b146107055760405162461bcd60e51b815260206004820152601460248201527347616d65206e6f7420696e2070726f677265737360601b60448201526064016101b3565b806006015443111561074d5760405162461bcd60e51b8152602060048201526011602482015270149bdd5b99081a185cc8195e1c1a5c9959607a1b60448201526064016101b3565b6000828152600660205260409020805460ff16801561077a575060018101546107779060c8611d9d565b43115b156107a1576000838152600660205260408120805460ff1916815560018101829055600201555b60008381526006602052604090205460ff16156107f75760405162461bcd60e51b81526020600482015260146024820152735370696e20616c72656164792070656e64696e6760601b60448201526064016101b3565b6000610802846117ce565b9050600181511161084c5760405162461bcd60e51b815260206004820152601460248201527313db9b1e481bdb99481c1b185e595c881b19599d60621b60448201526064016101b3565b60408051606081018252600180825243602080840182815260078901805486880190815260008c8152600685528890209651875460ff191690151517875591519486019490945551600290940193909355905483519182529181019190915285917f23cd5f4a12318f3c49df28957a6e8faa44e9c004e2fcd561199623298445dfd0910160405180910390a250505050565b60606108e9826117ce565b92915050565b6000670de0b6b3a764000083146109485760405162461bcd60e51b815260206004820152601c60248201527f5374616b65206d7573742062652065786163746c7920312043454c4f0000000060448201526064016101b3565b600a821015801561095b57506103e88211155b61099a5760405162461bcd60e51b815260206004820152601060248201526f24b73b30b634b210323ab930ba34b7b760811b60448201526064016101b3565b670de0b6b3a764000034146109fb5760405162461bcd60e51b815260206004820152602160248201527f4d7573742073656e642065786163746c7920312043454c4f206173207374616b6044820152606560f81b60648201526084016101b3565b674563918244f4000033311015610a545760405162461bcd60e51b815260206004820152601e60248201527f486f7374206d75737420686f6c64206174206c6561737420352043454c4f000060448201526064016101b3565b600080549080610a6383611db0565b90915550506000805481526001602081815260408084208054336001600160a01b031991821681178355670de0b6b3a76400006002808501829055600380860183905560048601805460ff19908116909155600587018d9055868a018054808c018255908c52898c200180549096168517909555865180880188528a81528089018b81528b548c52928952878b20858c528952878b2090518154901515961695909517855590519390970192909255865487529484528286208587529093529320819055610b319190611978565b6000805460405190917fbd19c47e9925eb6f7be8bb1c13a841e0240aaeaf17f217e90022e9c8eb66877f91a2505060005492915050565b610b8e604051806060016040528060001515815260200160008152602001600081525090565b506000908152600660209081526040918290208251606081018452815460ff1615158152600182015492810192909252600201549181019190915290565b600081815260016020819052604090912090600482015460ff166002811115610bf757610bf7611c23565b14610c365760405162461bcd60e51b815260206004820152600f60248201526e4e6f7420696e2070726f677265737360881b60448201526064016101b3565b80600601544311610c7f5760405162461bcd60e51b8152602060048201526013602482015272149bdd5b99081b9bdd08195b991959081e595d606a1b60448201526064016101b3565b6000828152600660205260409020805460ff168015610cac57506001810154610ca99060c8611d9d565b43115b15610cd3576000838152600660205260408120805460ff1916815560018101829055600201555b60008381526006602052604090205460ff1615610d325760405162461bcd60e51b815260206004820152601a60248201527f5265736f6c76652070656e64696e67207370696e20666972737400000000000060448201526064016101b3565b6000610d3d846117ce565b90506001815111610d5657610d51846119c2565b610d82565b600783018054906000610d6883611db0565b90915550506005830154610d7c9043611d9d565b60068401555b50505050565b60008181526001602052604090206002600482015460ff166002811115610db157610db1611c23565b14610df35760405162461bcd60e51b815260206004820152601260248201527111d85b59481b9bdd0818dbdb5c1b195d195960721b60448201526064016101b3565b60088101546001600160a01b0316610e3d5760405162461bcd60e51b815260206004820152600d60248201526c139bc81dda5b9b995c881cd95d609a1b60448201526064016101b3565b60088101546001600160a01b03163314610e8a5760405162461bcd60e51b815260206004820152600e60248201526d2737ba103a3432903bb4b73732b960911b60448201526064016101b3565b60008281526004602052604090205460ff1615610ee15760405162461bcd60e51b8152602060048201526015602482015274141c9a5e9948185b1c9958591e4818db185a5b5959605a1b60448201526064016101b3565b6000828152600460205260409020805460ff191660011790556003810154610f0a903390611abf565b600381015460405160009133918381818185875af1925050503d8060008114610f4f576040519150601f19603f3d011682016040523d82523d6000602084013e610f54565b606091505b5050905080610f975760405162461bcd60e51b815260206004820152600f60248201526e151c985b9cd9995c8819985a5b1959608a1b60448201526064016101b3565b600382015460408051338152602081019290925284917f4aa95f981a8337cb337de335b965507da0879c3b49f799d20058e913f5ad2c2691015b60405180910390a2505050565b600081815260016020526040812090600482015460ff16600281111561100657611006611c23565b146110445760405162461bcd60e51b815260206004820152600e60248201526d47616d65206e6f7420726561647960901b60448201526064016101b3565b80546001600160a01b031633146110965760405162461bcd60e51b815260206004820152601660248201527513db9b1e4818dc99585d1bdc8818d85b881cdd185c9d60521b60448201526064016101b3565b60018101546006146110e35760405162461bcd60e51b81526020600482015260166024820152754e6565642065786163746c79203620706c617965727360501b60448201526064016101b3565b60048101805460ff19166001908117909155600782015560058101546111099043611d9d565b600682015560405182907f50ad08f58a27f2851d7e3a1b3a6a46b290f2ce677e99642d30ff639721e7779090600090a25050565b60008181526001602090815260408083206006909252909120805460ff166111995760405162461bcd60e51b815260206004820152600f60248201526e2737903832b73234b7339039b834b760891b60448201526064016101b3565b6001600483015460ff1660028111156111b4576111b4611c23565b146111f85760405162461bcd60e51b815260206004820152601460248201527347616d65206e6f7420696e2070726f677265737360601b60448201526064016101b3565b600181600101546112099190611d9d565b4310156112585760405162461bcd60e51b815260206004820152601b60248201527f4d757374207761697420666f722052414e44414f2072657665616c000000000060448201526064016101b3565b60018101546112689060c8611d9d565b4311156112c95760405162461bcd60e51b815260206004820152602960248201527f5370696e20726571756573742065787069726564202d20726571756573742061604482015268103732bb9039b834b760b91b60648201526084016101b3565b6001810154604051637e24239360e11b81526000916001600160a01b037f0000000000000000000000000000000000000000000000000000000000000000169163fc4847269161131f9160040190815260200190565b602060405180830381865afa925050508015611358575060408051601f3d908101601f1916820190925261135591810190611dc9565b60015b156113605790505b8061136d57506001810154405b806113d55760405162461bcd60e51b815260206004820152603260248201527f52616e646f6d6e65737320756e617661696c61626c65202d207265736f6c76656044820152712077697468696e2032303020626c6f636b7360701b60648201526084016101b3565b60006113e0856117ce565b9050600181511161142a5760405162461bcd60e51b815260206004820152601460248201527313db9b1e481bdb99481c1b185e595c881b19599d60621b60448201526064016101b3565b600082868560020154866001015461144186611b01565b6040805160208101969096528501939093526060840191909152608083015260a082015260c001604051602081830303815290604052805190602001209050600082518260001c6114929190611de2565b905060008382815181106114a8576114a8611e04565b60209081029190910181015160008a8152600690925260408220805460ff19168155600181018390556002019190915590506114e48882611b31565b6007870154604080516001600160a01b0384168152602081019290925289917f51479c93d7646904d2282e9e79cddf11999ac774b7fd0289e2f59cb4ad0f086a910160405180910390a25050505050505050565b600081815260016020526040812090600482015460ff16600281111561156057611560611c23565b146115a15760405162461bcd60e51b815260206004820152601160248201527047616d65206e6f74206a6f696e61626c6560781b60448201526064016101b3565b60018101546006116115e45760405162461bcd60e51b815260206004820152600c60248201526b11d85b59481a5cc8199d5b1b60a21b60448201526064016101b3565b6115ee8233611b9a565b1561162d5760405162461bcd60e51b815260206004820152600f60248201526e416c726561647920696e2067616d6560881b60448201526064016101b3565b670de0b6b3a764000034146116845760405162461bcd60e51b815260206004820152601860248201527f4d7573742073656e642065786163746c7920312043454c4f000000000000000060448201526064016101b3565b670de0b6b3a76400008160020154146116df5760405162461bcd60e51b815260206004820152601960248201527f47616d65207374616b65206d75737420626520312043454c4f0000000000000060448201526064016101b3565b60018082018054918201815560009081526020812090910180546001600160a01b03191633179055600382018054670de0b6b3a76400009290611723908490611d9d565b90915550506040805180820182526000808252602080830182815286835260028252848320338085529083528584209451855460ff1916901515178555905160019094019390935585825260038152838220838352905291909120670de0b6b3a7640000908190556117959190611978565b60405133815282907f87969bc7faf902221a147b95ceba76e011c5efb0339a0a8ee7a2bb82d9cfbbd69060200160405180910390a25050565b60008181526001602081905260408220606092910190805b82548110156118585760026000868152602001908152602001600020600084838154811061181657611816611e04565b60009182526020808320909101546001600160a01b0316835282019290925260400190205460ff16611850578161184c81611db0565b9250505b6001016117e6565b5060008167ffffffffffffffff81111561187457611874611e1a565b60405190808252806020026020018201604052801561189d578160200160208202803683370190505b5090506000805b845481101561196d576002600088815260200190815260200160002060008683815481106118d4576118d4611e04565b60009182526020808320909101546001600160a01b0316835282019290925260400190205460ff166119655784818154811061191257611912611e04565b6000918252602090912001546001600160a01b0316838361193281611db0565b94508151811061194457611944611e04565b60200260200101906001600160a01b031690816001600160a01b0316815250505b6001016118a4565b509095945050505050565b6001600160a01b038216600090815260056020526040812080549091829061199f83611db0565b9190505550818160030160008282546119b89190611d9d565b9091555050505050565b6000818152600160205260408120906119da836117ce565b90508051600114611a375760405162461bcd60e51b815260206004820152602160248201527f43616e6e6f7420636f6d706c6574653a206e6f20756e697175652077696e6e656044820152603960f91b60648201526084016101b3565b60048201805460ff1916600217905580518190600090611a5957611a59611e04565b6020908102919091018101516008840180546001600160a01b0319166001600160a01b0390921691821790556007840154600985015560405190815284917f7f40df5127524300187445e867486da572aab86769c0212e0b392bd87c4ca97f9101610fd1565b6001600160a01b03821660009081526005602052604081206001810180549192611ae883611db0565b9190505550818160020160008282546119b89190611d9d565b600081604051602001611b149190611e30565b604051602081830303815290604052805190602001209050919050565b60008281526002602090815260408083206001600160a01b038516808552818452828520805460ff19166001908117825588875280865293862060070154918652919093520155611b81836117ce565b90508051600103611b9557611b95836119c2565b505050565b6000828152600160208190526040822001815b8154811015611bff57836001600160a01b0316828281548110611bd257611bd2611e04565b6000918252602090912001546001600160a01b031603611bf7576001925050506108e9565b600101611bad565b506000949350505050565b600060208284031215611c1c57600080fd5b5035919050565b634e487b7160e01b600052602160045260246000fd5b6001600160a01b038a81168252602082018a90526040820189905261012082019060038910611c7857634e487b7160e01b600052602160045260246000fd5b8860608401528760808401528660a08401528560c084015280851660e084015250826101008301529a9950505050505050505050565b80356001600160a01b0381168114611cc557600080fd5b919050565b60008060408385031215611cdd57600080fd5b82359150611ced60208401611cae565b90509250929050565b6020808252825182820181905260009190848201906040850190845b81811015611d375783516001600160a01b031683529284019291840191600101611d12565b50909695505050505050565b60008060408385031215611d5657600080fd5b50508035926020909101359150565b600060208284031215611d7757600080fd5b611d8082611cae565b9392505050565b634e487b7160e01b600052601160045260246000fd5b808201808211156108e9576108e9611d87565b600060018201611dc257611dc2611d87565b5060010190565b600060208284031215611ddb57600080fd5b5051919050565b600082611dff57634e487b7160e01b600052601260045260246000fd5b500690565b634e487b7160e01b600052603260045260246000fd5b634e487b7160e01b600052604160045260246000fd5b815160009082906020808601845b83811015611e635781516001600160a01b031685529382019390820190600101611e3e565b5092969550505050505056fea2646970667358221220f016fbda0e942ad9f91d94457b7312ce585cfa7861eabe5a2563f013788f824a64736f6c63430008180033",
  "linkReferences": {},
  "deployedLinkReferences": {}
}